{
	"contracts/Auction.sol": {
		"Auction": {
			"abi": [
				{
					"inputs": [
						{
							"internalType": "address payable",
							"name": "_auctionOwner",
							"type": "address"
						},
						{
							"internalType": "string",
							"name": "_auctionTitle",
							"type": "string"
						},
						{
							"internalType": "uint256",
							"name": "_startPrice",
							"type": "uint256"
						},
						{
							"internalType": "string",
							"name": "_auctionDescription",
							"type": "string"
						}
					],
					"stateMutability": "nonpayable",
					"type": "constructor"
				},
				{
					"inputs": [
						{
							"internalType": "uint256",
							"name": "bidAmount",
							"type": "uint256"
						}
					],
					"name": "bid",
					"outputs": [],
					"stateMutability": "payable",
					"type": "function"
				},
				{
					"inputs": [],
					"name": "contractAddress",
					"outputs": [
						{
							"internalType": "address",
							"name": "",
							"type": "address"
						}
					],
					"stateMutability": "view",
					"type": "function"
				},
				{
					"inputs": [],
					"name": "highestBid",
					"outputs": [
						{
							"internalType": "uint256",
							"name": "",
							"type": "uint256"
						}
					],
					"stateMutability": "view",
					"type": "function"
				},
				{
					"inputs": [],
					"name": "highestBidder",
					"outputs": [
						{
							"internalType": "address payable",
							"name": "",
							"type": "address"
						}
					],
					"stateMutability": "view",
					"type": "function"
				}
			],
			"devdoc": {
				"kind": "dev",
				"methods": {},
				"version": 1
			},
			"evm": {
				"assembly": "    /* \"contracts/Auction.sol\":482:1621  contract Auction {... */\n  mstore(0x40, 0x80)\n    /* \"contracts/Auction.sol\":1010:1011  0 */\n  0x00\n    /* \"contracts/Auction.sol\":982:1011  uint256 public highestBid = 0 */\n  0x05\n  sstore\n    /* \"contracts/Auction.sol\":633:931  constructor (address payable _auctionOwner, string memory _auctionTitle, uint _startPrice, string memory _auctionDescription) {... */\n  callvalue\n  dup1\n  iszero\n  tag_1\n  jumpi\n  0x00\n  dup1\n  revert\ntag_1:\n  pop\n  mload(0x40)\n  sub(codesize, bytecodeSize)\n  dup1\n  bytecodeSize\n  dup4\n  codecopy\n  dup2\n  dup2\n  add\n  0x40\n  mstore\n  dup2\n  add\n  swap1\n  tag_2\n  swap2\n  swap1\n  tag_3\n  jump\t// in\ntag_2:\n    /* \"contracts/Auction.sol\":785:798  _auctionOwner */\n  dup4\n    /* \"contracts/Auction.sol\":770:782  auctionOwner */\n  0x00\n  dup1\n    /* \"contracts/Auction.sol\":770:798  auctionOwner = _auctionOwner */\n  0x0100\n  exp\n  dup2\n  sload\n  dup2\n  0xffffffffffffffffffffffffffffffffffffffff\n  mul\n  not\n  and\n  swap1\n  dup4\n  0xffffffffffffffffffffffffffffffffffffffff\n  and\n  mul\n  or\n  swap1\n  sstore\n  pop\n    /* \"contracts/Auction.sol\":824:837  _auctionTitle */\n  dup3\n    /* \"contracts/Auction.sol\":809:821  auctionTitle */\n  0x01\n    /* \"contracts/Auction.sol\":809:837  auctionTitle = _auctionTitle */\n  swap1\n  dup2\n  tag_6\n  swap2\n  swap1\n  tag_7\n  jump\t// in\ntag_6:\n  pop\n    /* \"contracts/Auction.sol\":861:872  _startPrice */\n  dup2\n    /* \"contracts/Auction.sol\":848:858  startPrice */\n  0x02\n    /* \"contracts/Auction.sol\":848:872  startPrice = _startPrice */\n  dup2\n  swap1\n  sstore\n  pop\n    /* \"contracts/Auction.sol\":904:923  _auctionDescription */\n  dup1\n    /* \"contracts/Auction.sol\":883:901  auctionDescription */\n  0x03\n    /* \"contracts/Auction.sol\":883:923  auctionDescription = _auctionDescription */\n  swap1\n  dup2\n  tag_8\n  swap2\n  swap1\n  tag_7\n  jump\t// in\ntag_8:\n  pop\n    /* \"contracts/Auction.sol\":633:931  constructor (address payable _auctionOwner, string memory _auctionTitle, uint _startPrice, string memory _auctionDescription) {... */\n  pop\n  pop\n  pop\n  pop\n    /* \"contracts/Auction.sol\":482:1621  contract Auction {... */\n  jump(tag_9)\n    /* \"#utility.yul\":7:82   */\ntag_10:\n    /* \"#utility.yul\":40:46   */\n  0x00\n    /* \"#utility.yul\":73:75   */\n  0x40\n    /* \"#utility.yul\":67:76   */\n  mload\n    /* \"#utility.yul\":57:76   */\n  swap1\n  pop\n    /* \"#utility.yul\":7:82   */\n  swap1\n  jump\t// out\n    /* \"#utility.yul\":88:205   */\ntag_11:\n    /* \"#utility.yul\":197:198   */\n  0x00\n    /* \"#utility.yul\":194:195   */\n  dup1\n    /* \"#utility.yul\":187:199   */\n  revert\n    /* \"#utility.yul\":211:328   */\ntag_12:\n    /* \"#utility.yul\":320:321   */\n  0x00\n    /* \"#utility.yul\":317:318   */\n  dup1\n    /* \"#utility.yul\":310:322   */\n  revert\n    /* \"#utility.yul\":334:460   */\ntag_13:\n    /* \"#utility.yul\":371:378   */\n  0x00\n    /* \"#utility.yul\":411:453   */\n  0xffffffffffffffffffffffffffffffffffffffff\n    /* \"#utility.yul\":404:409   */\n  dup3\n    /* \"#utility.yul\":400:454   */\n  and\n    /* \"#utility.yul\":389:454   */\n  swap1\n  pop\n    /* \"#utility.yul\":334:460   */\n  swap2\n  swap1\n  pop\n  jump\t// out\n    /* \"#utility.yul\":466:570   */\ntag_14:\n    /* \"#utility.yul\":511:518   */\n  0x00\n    /* \"#utility.yul\":540:564   */\n  tag_54\n    /* \"#utility.yul\":558:563   */\n  dup3\n    /* \"#utility.yul\":540:564   */\n  tag_13\n  jump\t// in\ntag_54:\n    /* \"#utility.yul\":529:564   */\n  swap1\n  pop\n    /* \"#utility.yul\":466:570   */\n  swap2\n  swap1\n  pop\n  jump\t// out\n    /* \"#utility.yul\":576:714   */\ntag_15:\n    /* \"#utility.yul\":657:689   */\n  tag_56\n    /* \"#utility.yul\":683:688   */\n  dup2\n    /* \"#utility.yul\":657:689   */\n  tag_14\n  jump\t// in\ntag_56:\n    /* \"#utility.yul\":650:655   */\n  dup2\n    /* \"#utility.yul\":647:690   */\n  eq\n    /* \"#utility.yul\":637:708   */\n  tag_57\n  jumpi\n    /* \"#utility.yul\":704:705   */\n  0x00\n    /* \"#utility.yul\":701:702   */\n  dup1\n    /* \"#utility.yul\":694:706   */\n  revert\n    /* \"#utility.yul\":637:708   */\ntag_57:\n    /* \"#utility.yul\":576:714   */\n  pop\n  jump\t// out\n    /* \"#utility.yul\":720:879   */\ntag_16:\n    /* \"#utility.yul\":785:790   */\n  0x00\n    /* \"#utility.yul\":816:822   */\n  dup2\n    /* \"#utility.yul\":810:823   */\n  mload\n    /* \"#utility.yul\":801:823   */\n  swap1\n  pop\n    /* \"#utility.yul\":832:873   */\n  tag_59\n    /* \"#utility.yul\":867:872   */\n  dup2\n    /* \"#utility.yul\":832:873   */\n  tag_15\n  jump\t// in\ntag_59:\n    /* \"#utility.yul\":720:879   */\n  swap3\n  swap2\n  pop\n  pop\n  jump\t// out\n    /* \"#utility.yul\":885:1002   */\ntag_17:\n    /* \"#utility.yul\":994:995   */\n  0x00\n    /* \"#utility.yul\":991:992   */\n  dup1\n    /* \"#utility.yul\":984:996   */\n  revert\n    /* \"#utility.yul\":1008:1125   */\ntag_18:\n    /* \"#utility.yul\":1117:1118   */\n  0x00\n    /* \"#utility.yul\":1114:1115   */\n  dup1\n    /* \"#utility.yul\":1107:1119   */\n  revert\n    /* \"#utility.yul\":1131:1233   */\ntag_19:\n    /* \"#utility.yul\":1172:1178   */\n  0x00\n    /* \"#utility.yul\":1223:1225   */\n  0x1f\n    /* \"#utility.yul\":1219:1226   */\n  not\n    /* \"#utility.yul\":1214:1216   */\n  0x1f\n    /* \"#utility.yul\":1207:1212   */\n  dup4\n    /* \"#utility.yul\":1203:1217   */\n  add\n    /* \"#utility.yul\":1199:1227   */\n  and\n    /* \"#utility.yul\":1189:1227   */\n  swap1\n  pop\n    /* \"#utility.yul\":1131:1233   */\n  swap2\n  swap1\n  pop\n  jump\t// out\n    /* \"#utility.yul\":1239:1419   */\ntag_20:\n    /* \"#utility.yul\":1287:1364   */\n  0x4e487b7100000000000000000000000000000000000000000000000000000000\n    /* \"#utility.yul\":1284:1285   */\n  0x00\n    /* \"#utility.yul\":1277:1365   */\n  mstore\n    /* \"#utility.yul\":1384:1388   */\n  0x41\n    /* \"#utility.yul\":1381:1382   */\n  0x04\n    /* \"#utility.yul\":1374:1389   */\n  mstore\n    /* \"#utility.yul\":1408:1412   */\n  0x24\n    /* \"#utility.yul\":1405:1406   */\n  0x00\n    /* \"#utility.yul\":1398:1413   */\n  revert\n    /* \"#utility.yul\":1425:1706   */\ntag_21:\n    /* \"#utility.yul\":1508:1535   */\n  tag_65\n    /* \"#utility.yul\":1530:1534   */\n  dup3\n    /* \"#utility.yul\":1508:1535   */\n  tag_19\n  jump\t// in\ntag_65:\n    /* \"#utility.yul\":1500:1506   */\n  dup2\n    /* \"#utility.yul\":1496:1536   */\n  add\n    /* \"#utility.yul\":1638:1644   */\n  dup2\n    /* \"#utility.yul\":1626:1636   */\n  dup2\n    /* \"#utility.yul\":1623:1645   */\n  lt\n    /* \"#utility.yul\":1602:1620   */\n  0xffffffffffffffff\n    /* \"#utility.yul\":1590:1600   */\n  dup3\n    /* \"#utility.yul\":1587:1621   */\n  gt\n    /* \"#utility.yul\":1584:1646   */\n  or\n    /* \"#utility.yul\":1581:1669   */\n  iszero\n  tag_66\n  jumpi\n    /* \"#utility.yul\":1649:1667   */\n  tag_67\n  tag_20\n  jump\t// in\ntag_67:\n    /* \"#utility.yul\":1581:1669   */\ntag_66:\n    /* \"#utility.yul\":1689:1699   */\n  dup1\n    /* \"#utility.yul\":1685:1687   */\n  0x40\n    /* \"#utility.yul\":1678:1700   */\n  mstore\n    /* \"#utility.yul\":1468:1706   */\n  pop\n    /* \"#utility.yul\":1425:1706   */\n  pop\n  pop\n  jump\t// out\n    /* \"#utility.yul\":1712:1841   */\ntag_22:\n    /* \"#utility.yul\":1746:1752   */\n  0x00\n    /* \"#utility.yul\":1773:1793   */\n  tag_69\n  tag_10\n  jump\t// in\ntag_69:\n    /* \"#utility.yul\":1763:1793   */\n  swap1\n  pop\n    /* \"#utility.yul\":1802:1835   */\n  tag_70\n    /* \"#utility.yul\":1830:1834   */\n  dup3\n    /* \"#utility.yul\":1822:1828   */\n  dup3\n    /* \"#utility.yul\":1802:1835   */\n  tag_21\n  jump\t// in\ntag_70:\n    /* \"#utility.yul\":1712:1841   */\n  swap2\n  swap1\n  pop\n  jump\t// out\n    /* \"#utility.yul\":1847:2155   */\ntag_23:\n    /* \"#utility.yul\":1909:1913   */\n  0x00\n    /* \"#utility.yul\":1999:2017   */\n  0xffffffffffffffff\n    /* \"#utility.yul\":1991:1997   */\n  dup3\n    /* \"#utility.yul\":1988:2018   */\n  gt\n    /* \"#utility.yul\":1985:2041   */\n  iszero\n  tag_72\n  jumpi\n    /* \"#utility.yul\":2021:2039   */\n  tag_73\n  tag_20\n  jump\t// in\ntag_73:\n    /* \"#utility.yul\":1985:2041   */\ntag_72:\n    /* \"#utility.yul\":2059:2088   */\n  tag_74\n    /* \"#utility.yul\":2081:2087   */\n  dup3\n    /* \"#utility.yul\":2059:2088   */\n  tag_19\n  jump\t// in\ntag_74:\n    /* \"#utility.yul\":2051:2088   */\n  swap1\n  pop\n    /* \"#utility.yul\":2143:2147   */\n  0x20\n    /* \"#utility.yul\":2137:2141   */\n  dup2\n    /* \"#utility.yul\":2133:2148   */\n  add\n    /* \"#utility.yul\":2125:2148   */\n  swap1\n  pop\n    /* \"#utility.yul\":1847:2155   */\n  swap2\n  swap1\n  pop\n  jump\t// out\n    /* \"#utility.yul\":2161:2407   */\ntag_24:\n    /* \"#utility.yul\":2242:2243   */\n  0x00\n    /* \"#utility.yul\":2252:2365   */\ntag_76:\n    /* \"#utility.yul\":2266:2272   */\n  dup4\n    /* \"#utility.yul\":2263:2264   */\n  dup2\n    /* \"#utility.yul\":2260:2273   */\n  lt\n    /* \"#utility.yul\":2252:2365   */\n  iszero\n  tag_78\n  jumpi\n    /* \"#utility.yul\":2351:2352   */\n  dup1\n    /* \"#utility.yul\":2346:2349   */\n  dup3\n    /* \"#utility.yul\":2342:2353   */\n  add\n    /* \"#utility.yul\":2336:2354   */\n  mload\n    /* \"#utility.yul\":2332:2333   */\n  dup2\n    /* \"#utility.yul\":2327:2330   */\n  dup5\n    /* \"#utility.yul\":2323:2334   */\n  add\n    /* \"#utility.yul\":2316:2355   */\n  mstore\n    /* \"#utility.yul\":2288:2290   */\n  0x20\n    /* \"#utility.yul\":2285:2286   */\n  dup2\n    /* \"#utility.yul\":2281:2291   */\n  add\n    /* \"#utility.yul\":2276:2291   */\n  swap1\n  pop\n    /* \"#utility.yul\":2252:2365   */\n  jump(tag_76)\ntag_78:\n    /* \"#utility.yul\":2399:2400   */\n  0x00\n    /* \"#utility.yul\":2390:2396   */\n  dup5\n    /* \"#utility.yul\":2385:2388   */\n  dup5\n    /* \"#utility.yul\":2381:2397   */\n  add\n    /* \"#utility.yul\":2374:2401   */\n  mstore\n    /* \"#utility.yul\":2223:2407   */\n  pop\n    /* \"#utility.yul\":2161:2407   */\n  pop\n  pop\n  pop\n  jump\t// out\n    /* \"#utility.yul\":2413:2847   */\ntag_25:\n    /* \"#utility.yul\":2502:2507   */\n  0x00\n    /* \"#utility.yul\":2527:2593   */\n  tag_80\n    /* \"#utility.yul\":2543:2592   */\n  tag_81\n    /* \"#utility.yul\":2585:2591   */\n  dup5\n    /* \"#utility.yul\":2543:2592   */\n  tag_23\n  jump\t// in\ntag_81:\n    /* \"#utility.yul\":2527:2593   */\n  tag_22\n  jump\t// in\ntag_80:\n    /* \"#utility.yul\":2518:2593   */\n  swap1\n  pop\n    /* \"#utility.yul\":2616:2622   */\n  dup3\n    /* \"#utility.yul\":2609:2614   */\n  dup2\n    /* \"#utility.yul\":2602:2623   */\n  mstore\n    /* \"#utility.yul\":2654:2658   */\n  0x20\n    /* \"#utility.yul\":2647:2652   */\n  dup2\n    /* \"#utility.yul\":2643:2659   */\n  add\n    /* \"#utility.yul\":2692:2695   */\n  dup5\n    /* \"#utility.yul\":2683:2689   */\n  dup5\n    /* \"#utility.yul\":2678:2681   */\n  dup5\n    /* \"#utility.yul\":2674:2690   */\n  add\n    /* \"#utility.yul\":2671:2696   */\n  gt\n    /* \"#utility.yul\":2668:2780   */\n  iszero\n  tag_82\n  jumpi\n    /* \"#utility.yul\":2699:2778   */\n  tag_83\n  tag_18\n  jump\t// in\ntag_83:\n    /* \"#utility.yul\":2668:2780   */\ntag_82:\n    /* \"#utility.yul\":2789:2841   */\n  tag_84\n    /* \"#utility.yul\":2834:2840   */\n  dup5\n    /* \"#utility.yul\":2829:2832   */\n  dup3\n    /* \"#utility.yul\":2824:2827   */\n  dup6\n    /* \"#utility.yul\":2789:2841   */\n  tag_24\n  jump\t// in\ntag_84:\n    /* \"#utility.yul\":2508:2847   */\n  pop\n    /* \"#utility.yul\":2413:2847   */\n  swap4\n  swap3\n  pop\n  pop\n  pop\n  jump\t// out\n    /* \"#utility.yul\":2867:3222   */\ntag_26:\n    /* \"#utility.yul\":2934:2939   */\n  0x00\n    /* \"#utility.yul\":2983:2986   */\n  dup3\n    /* \"#utility.yul\":2976:2980   */\n  0x1f\n    /* \"#utility.yul\":2968:2974   */\n  dup4\n    /* \"#utility.yul\":2964:2981   */\n  add\n    /* \"#utility.yul\":2960:2987   */\n  slt\n    /* \"#utility.yul\":2950:3072   */\n  tag_86\n  jumpi\n    /* \"#utility.yul\":2991:3070   */\n  tag_87\n  tag_17\n  jump\t// in\ntag_87:\n    /* \"#utility.yul\":2950:3072   */\ntag_86:\n    /* \"#utility.yul\":3101:3107   */\n  dup2\n    /* \"#utility.yul\":3095:3108   */\n  mload\n    /* \"#utility.yul\":3126:3216   */\n  tag_88\n    /* \"#utility.yul\":3212:3215   */\n  dup5\n    /* \"#utility.yul\":3204:3210   */\n  dup3\n    /* \"#utility.yul\":3197:3201   */\n  0x20\n    /* \"#utility.yul\":3189:3195   */\n  dup7\n    /* \"#utility.yul\":3185:3202   */\n  add\n    /* \"#utility.yul\":3126:3216   */\n  tag_25\n  jump\t// in\ntag_88:\n    /* \"#utility.yul\":3117:3216   */\n  swap2\n  pop\n    /* \"#utility.yul\":2940:3222   */\n  pop\n    /* \"#utility.yul\":2867:3222   */\n  swap3\n  swap2\n  pop\n  pop\n  jump\t// out\n    /* \"#utility.yul\":3228:3305   */\ntag_27:\n    /* \"#utility.yul\":3265:3272   */\n  0x00\n    /* \"#utility.yul\":3294:3299   */\n  dup2\n    /* \"#utility.yul\":3283:3299   */\n  swap1\n  pop\n    /* \"#utility.yul\":3228:3305   */\n  swap2\n  swap1\n  pop\n  jump\t// out\n    /* \"#utility.yul\":3311:3433   */\ntag_28:\n    /* \"#utility.yul\":3384:3408   */\n  tag_91\n    /* \"#utility.yul\":3402:3407   */\n  dup2\n    /* \"#utility.yul\":3384:3408   */\n  tag_27\n  jump\t// in\ntag_91:\n    /* \"#utility.yul\":3377:3382   */\n  dup2\n    /* \"#utility.yul\":3374:3409   */\n  eq\n    /* \"#utility.yul\":3364:3427   */\n  tag_92\n  jumpi\n    /* \"#utility.yul\":3423:3424   */\n  0x00\n    /* \"#utility.yul\":3420:3421   */\n  dup1\n    /* \"#utility.yul\":3413:3425   */\n  revert\n    /* \"#utility.yul\":3364:3427   */\ntag_92:\n    /* \"#utility.yul\":3311:3433   */\n  pop\n  jump\t// out\n    /* \"#utility.yul\":3439:3582   */\ntag_29:\n    /* \"#utility.yul\":3496:3501   */\n  0x00\n    /* \"#utility.yul\":3527:3533   */\n  dup2\n    /* \"#utility.yul\":3521:3534   */\n  mload\n    /* \"#utility.yul\":3512:3534   */\n  swap1\n  pop\n    /* \"#utility.yul\":3543:3576   */\n  tag_94\n    /* \"#utility.yul\":3570:3575   */\n  dup2\n    /* \"#utility.yul\":3543:3576   */\n  tag_28\n  jump\t// in\ntag_94:\n    /* \"#utility.yul\":3439:3582   */\n  swap3\n  swap2\n  pop\n  pop\n  jump\t// out\n    /* \"#utility.yul\":3588:4770   */\ntag_3:\n    /* \"#utility.yul\":3713:3719   */\n  0x00\n    /* \"#utility.yul\":3721:3727   */\n  dup1\n    /* \"#utility.yul\":3729:3735   */\n  0x00\n    /* \"#utility.yul\":3737:3743   */\n  dup1\n    /* \"#utility.yul\":3786:3789   */\n  0x80\n    /* \"#utility.yul\":3774:3783   */\n  dup6\n    /* \"#utility.yul\":3765:3772   */\n  dup8\n    /* \"#utility.yul\":3761:3784   */\n  sub\n    /* \"#utility.yul\":3757:3790   */\n  slt\n    /* \"#utility.yul\":3754:3874   */\n  iszero\n  tag_96\n  jumpi\n    /* \"#utility.yul\":3793:3872   */\n  tag_97\n  tag_11\n  jump\t// in\ntag_97:\n    /* \"#utility.yul\":3754:3874   */\ntag_96:\n    /* \"#utility.yul\":3913:3914   */\n  0x00\n    /* \"#utility.yul\":3938:4010   */\n  tag_98\n    /* \"#utility.yul\":4002:4009   */\n  dup8\n    /* \"#utility.yul\":3993:3999   */\n  dup3\n    /* \"#utility.yul\":3982:3991   */\n  dup9\n    /* \"#utility.yul\":3978:4000   */\n  add\n    /* \"#utility.yul\":3938:4010   */\n  tag_16\n  jump\t// in\ntag_98:\n    /* \"#utility.yul\":3928:4010   */\n  swap5\n  pop\n    /* \"#utility.yul\":3884:4020   */\n  pop\n    /* \"#utility.yul\":4080:4082   */\n  0x20\n    /* \"#utility.yul\":4069:4078   */\n  dup6\n    /* \"#utility.yul\":4065:4083   */\n  add\n    /* \"#utility.yul\":4059:4084   */\n  mload\n    /* \"#utility.yul\":4111:4129   */\n  0xffffffffffffffff\n    /* \"#utility.yul\":4103:4109   */\n  dup2\n    /* \"#utility.yul\":4100:4130   */\n  gt\n    /* \"#utility.yul\":4097:4214   */\n  iszero\n  tag_99\n  jumpi\n    /* \"#utility.yul\":4133:4212   */\n  tag_100\n  tag_12\n  jump\t// in\ntag_100:\n    /* \"#utility.yul\":4097:4214   */\ntag_99:\n    /* \"#utility.yul\":4238:4312   */\n  tag_101\n    /* \"#utility.yul\":4304:4311   */\n  dup8\n    /* \"#utility.yul\":4295:4301   */\n  dup3\n    /* \"#utility.yul\":4284:4293   */\n  dup9\n    /* \"#utility.yul\":4280:4302   */\n  add\n    /* \"#utility.yul\":4238:4312   */\n  tag_26\n  jump\t// in\ntag_101:\n    /* \"#utility.yul\":4228:4312   */\n  swap4\n  pop\n    /* \"#utility.yul\":4030:4322   */\n  pop\n    /* \"#utility.yul\":4361:4363   */\n  0x40\n    /* \"#utility.yul\":4387:4451   */\n  tag_102\n    /* \"#utility.yul\":4443:4450   */\n  dup8\n    /* \"#utility.yul\":4434:4440   */\n  dup3\n    /* \"#utility.yul\":4423:4432   */\n  dup9\n    /* \"#utility.yul\":4419:4441   */\n  add\n    /* \"#utility.yul\":4387:4451   */\n  tag_29\n  jump\t// in\ntag_102:\n    /* \"#utility.yul\":4377:4451   */\n  swap3\n  pop\n    /* \"#utility.yul\":4332:4461   */\n  pop\n    /* \"#utility.yul\":4521:4523   */\n  0x60\n    /* \"#utility.yul\":4510:4519   */\n  dup6\n    /* \"#utility.yul\":4506:4524   */\n  add\n    /* \"#utility.yul\":4500:4525   */\n  mload\n    /* \"#utility.yul\":4552:4570   */\n  0xffffffffffffffff\n    /* \"#utility.yul\":4544:4550   */\n  dup2\n    /* \"#utility.yul\":4541:4571   */\n  gt\n    /* \"#utility.yul\":4538:4655   */\n  iszero\n  tag_103\n  jumpi\n    /* \"#utility.yul\":4574:4653   */\n  tag_104\n  tag_12\n  jump\t// in\ntag_104:\n    /* \"#utility.yul\":4538:4655   */\ntag_103:\n    /* \"#utility.yul\":4679:4753   */\n  tag_105\n    /* \"#utility.yul\":4745:4752   */\n  dup8\n    /* \"#utility.yul\":4736:4742   */\n  dup3\n    /* \"#utility.yul\":4725:4734   */\n  dup9\n    /* \"#utility.yul\":4721:4743   */\n  add\n    /* \"#utility.yul\":4679:4753   */\n  tag_26\n  jump\t// in\ntag_105:\n    /* \"#utility.yul\":4669:4753   */\n  swap2\n  pop\n    /* \"#utility.yul\":4471:4763   */\n  pop\n    /* \"#utility.yul\":3588:4770   */\n  swap3\n  swap6\n  swap2\n  swap5\n  pop\n  swap3\n  pop\n  jump\t// out\n    /* \"#utility.yul\":4776:4875   */\ntag_30:\n    /* \"#utility.yul\":4828:4834   */\n  0x00\n    /* \"#utility.yul\":4862:4867   */\n  dup2\n    /* \"#utility.yul\":4856:4868   */\n  mload\n    /* \"#utility.yul\":4846:4868   */\n  swap1\n  pop\n    /* \"#utility.yul\":4776:4875   */\n  swap2\n  swap1\n  pop\n  jump\t// out\n    /* \"#utility.yul\":4881:5061   */\ntag_31:\n    /* \"#utility.yul\":4929:5006   */\n  0x4e487b7100000000000000000000000000000000000000000000000000000000\n    /* \"#utility.yul\":4926:4927   */\n  0x00\n    /* \"#utility.yul\":4919:5007   */\n  mstore\n    /* \"#utility.yul\":5026:5030   */\n  0x22\n    /* \"#utility.yul\":5023:5024   */\n  0x04\n    /* \"#utility.yul\":5016:5031   */\n  mstore\n    /* \"#utility.yul\":5050:5054   */\n  0x24\n    /* \"#utility.yul\":5047:5048   */\n  0x00\n    /* \"#utility.yul\":5040:5055   */\n  revert\n    /* \"#utility.yul\":5067:5387   */\ntag_32:\n    /* \"#utility.yul\":5111:5117   */\n  0x00\n    /* \"#utility.yul\":5148:5149   */\n  0x02\n    /* \"#utility.yul\":5142:5146   */\n  dup3\n    /* \"#utility.yul\":5138:5150   */\n  div\n    /* \"#utility.yul\":5128:5150   */\n  swap1\n  pop\n    /* \"#utility.yul\":5195:5196   */\n  0x01\n    /* \"#utility.yul\":5189:5193   */\n  dup3\n    /* \"#utility.yul\":5185:5197   */\n  and\n    /* \"#utility.yul\":5216:5234   */\n  dup1\n    /* \"#utility.yul\":5206:5287   */\n  tag_109\n  jumpi\n    /* \"#utility.yul\":5272:5276   */\n  0x7f\n    /* \"#utility.yul\":5264:5270   */\n  dup3\n    /* \"#utility.yul\":5260:5277   */\n  and\n    /* \"#utility.yul\":5250:5277   */\n  swap2\n  pop\n    /* \"#utility.yul\":5206:5287   */\ntag_109:\n    /* \"#utility.yul\":5334:5336   */\n  0x20\n    /* \"#utility.yul\":5326:5332   */\n  dup3\n    /* \"#utility.yul\":5323:5337   */\n  lt\n    /* \"#utility.yul\":5303:5321   */\n  dup2\n    /* \"#utility.yul\":5300:5338   */\n  sub\n    /* \"#utility.yul\":5297:5381   */\n  tag_110\n  jumpi\n    /* \"#utility.yul\":5353:5371   */\n  tag_111\n  tag_31\n  jump\t// in\ntag_111:\n    /* \"#utility.yul\":5297:5381   */\ntag_110:\n    /* \"#utility.yul\":5118:5387   */\n  pop\n    /* \"#utility.yul\":5067:5387   */\n  swap2\n  swap1\n  pop\n  jump\t// out\n    /* \"#utility.yul\":5393:5534   */\ntag_33:\n    /* \"#utility.yul\":5442:5446   */\n  0x00\n    /* \"#utility.yul\":5465:5468   */\n  dup2\n    /* \"#utility.yul\":5457:5468   */\n  swap1\n  pop\n    /* \"#utility.yul\":5488:5491   */\n  dup2\n    /* \"#utility.yul\":5485:5486   */\n  0x00\n    /* \"#utility.yul\":5478:5492   */\n  mstore\n    /* \"#utility.yul\":5522:5526   */\n  0x20\n    /* \"#utility.yul\":5519:5520   */\n  0x00\n    /* \"#utility.yul\":5509:5527   */\n  keccak256\n    /* \"#utility.yul\":5501:5527   */\n  swap1\n  pop\n    /* \"#utility.yul\":5393:5534   */\n  swap2\n  swap1\n  pop\n  jump\t// out\n    /* \"#utility.yul\":5540:5633   */\ntag_34:\n    /* \"#utility.yul\":5577:5583   */\n  0x00\n    /* \"#utility.yul\":5624:5626   */\n  0x20\n    /* \"#utility.yul\":5619:5621   */\n  0x1f\n    /* \"#utility.yul\":5612:5617   */\n  dup4\n    /* \"#utility.yul\":5608:5622   */\n  add\n    /* \"#utility.yul\":5604:5627   */\n  div\n    /* \"#utility.yul\":5594:5627   */\n  swap1\n  pop\n    /* \"#utility.yul\":5540:5633   */\n  swap2\n  swap1\n  pop\n  jump\t// out\n    /* \"#utility.yul\":5639:5746   */\ntag_35:\n    /* \"#utility.yul\":5683:5691   */\n  0x00\n    /* \"#utility.yul\":5733:5738   */\n  dup3\n    /* \"#utility.yul\":5727:5731   */\n  dup3\n    /* \"#utility.yul\":5723:5739   */\n  shl\n    /* \"#utility.yul\":5702:5739   */\n  swap1\n  pop\n    /* \"#utility.yul\":5639:5746   */\n  swap3\n  swap2\n  pop\n  pop\n  jump\t// out\n    /* \"#utility.yul\":5752:6145   */\ntag_36:\n    /* \"#utility.yul\":5821:5827   */\n  0x00\n    /* \"#utility.yul\":5871:5872   */\n  0x08\n    /* \"#utility.yul\":5859:5869   */\n  dup4\n    /* \"#utility.yul\":5855:5873   */\n  mul\n    /* \"#utility.yul\":5894:5991   */\n  tag_116\n    /* \"#utility.yul\":5924:5990   */\n  0xffffffffffffffffffffffffffffffffffffffffffffffffffffffffffffffff\n    /* \"#utility.yul\":5913:5922   */\n  dup3\n    /* \"#utility.yul\":5894:5991   */\n  tag_35\n  jump\t// in\ntag_116:\n    /* \"#utility.yul\":6012:6051   */\n  tag_117\n    /* \"#utility.yul\":6042:6050   */\n  dup7\n    /* \"#utility.yul\":6031:6040   */\n  dup4\n    /* \"#utility.yul\":6012:6051   */\n  tag_35\n  jump\t// in\ntag_117:\n    /* \"#utility.yul\":6000:6051   */\n  swap6\n  pop\n    /* \"#utility.yul\":6084:6088   */\n  dup1\n    /* \"#utility.yul\":6080:6089   */\n  not\n    /* \"#utility.yul\":6073:6078   */\n  dup5\n    /* \"#utility.yul\":6069:6090   */\n  and\n    /* \"#utility.yul\":6060:6090   */\n  swap4\n  pop\n    /* \"#utility.yul\":6133:6137   */\n  dup1\n    /* \"#utility.yul\":6123:6131   */\n  dup7\n    /* \"#utility.yul\":6119:6138   */\n  and\n    /* \"#utility.yul\":6112:6117   */\n  dup5\n    /* \"#utility.yul\":6109:6139   */\n  or\n    /* \"#utility.yul\":6099:6139   */\n  swap3\n  pop\n    /* \"#utility.yul\":5828:6145   */\n  pop\n  pop\n    /* \"#utility.yul\":5752:6145   */\n  swap4\n  swap3\n  pop\n  pop\n  pop\n  jump\t// out\n    /* \"#utility.yul\":6151:6211   */\ntag_37:\n    /* \"#utility.yul\":6179:6182   */\n  0x00\n    /* \"#utility.yul\":6200:6205   */\n  dup2\n    /* \"#utility.yul\":6193:6205   */\n  swap1\n  pop\n    /* \"#utility.yul\":6151:6211   */\n  swap2\n  swap1\n  pop\n  jump\t// out\n    /* \"#utility.yul\":6217:6359   */\ntag_38:\n    /* \"#utility.yul\":6267:6276   */\n  0x00\n    /* \"#utility.yul\":6300:6353   */\n  tag_120\n    /* \"#utility.yul\":6318:6352   */\n  tag_121\n    /* \"#utility.yul\":6327:6351   */\n  tag_122\n    /* \"#utility.yul\":6345:6350   */\n  dup5\n    /* \"#utility.yul\":6327:6351   */\n  tag_27\n  jump\t// in\ntag_122:\n    /* \"#utility.yul\":6318:6352   */\n  tag_37\n  jump\t// in\ntag_121:\n    /* \"#utility.yul\":6300:6353   */\n  tag_27\n  jump\t// in\ntag_120:\n    /* \"#utility.yul\":6287:6353   */\n  swap1\n  pop\n    /* \"#utility.yul\":6217:6359   */\n  swap2\n  swap1\n  pop\n  jump\t// out\n    /* \"#utility.yul\":6365:6440   */\ntag_39:\n    /* \"#utility.yul\":6408:6411   */\n  0x00\n    /* \"#utility.yul\":6429:6434   */\n  dup2\n    /* \"#utility.yul\":6422:6434   */\n  swap1\n  pop\n    /* \"#utility.yul\":6365:6440   */\n  swap2\n  swap1\n  pop\n  jump\t// out\n    /* \"#utility.yul\":6446:6715   */\ntag_40:\n    /* \"#utility.yul\":6556:6595   */\n  tag_125\n    /* \"#utility.yul\":6587:6594   */\n  dup4\n    /* \"#utility.yul\":6556:6595   */\n  tag_38\n  jump\t// in\ntag_125:\n    /* \"#utility.yul\":6617:6708   */\n  tag_126\n    /* \"#utility.yul\":6666:6707   */\n  tag_127\n    /* \"#utility.yul\":6690:6706   */\n  dup3\n    /* \"#utility.yul\":6666:6707   */\n  tag_39\n  jump\t// in\ntag_127:\n    /* \"#utility.yul\":6658:6664   */\n  dup5\n    /* \"#utility.yul\":6651:6655   */\n  dup5\n    /* \"#utility.yul\":6645:6656   */\n  sload\n    /* \"#utility.yul\":6617:6708   */\n  tag_36\n  jump\t// in\ntag_126:\n    /* \"#utility.yul\":6611:6615   */\n  dup3\n    /* \"#utility.yul\":6604:6709   */\n  sstore\n    /* \"#utility.yul\":6522:6715   */\n  pop\n    /* \"#utility.yul\":6446:6715   */\n  pop\n  pop\n  pop\n  jump\t// out\n    /* \"#utility.yul\":6721:6794   */\ntag_41:\n    /* \"#utility.yul\":6766:6769   */\n  0x00\n    /* \"#utility.yul\":6721:6794   */\n  swap1\n  jump\t// out\n    /* \"#utility.yul\":6800:6989   */\ntag_42:\n    /* \"#utility.yul\":6877:6909   */\n  tag_130\n  tag_41\n  jump\t// in\ntag_130:\n    /* \"#utility.yul\":6918:6983   */\n  tag_131\n    /* \"#utility.yul\":6976:6982   */\n  dup2\n    /* \"#utility.yul\":6968:6974   */\n  dup5\n    /* \"#utility.yul\":6962:6966   */\n  dup5\n    /* \"#utility.yul\":6918:6983   */\n  tag_40\n  jump\t// in\ntag_131:\n    /* \"#utility.yul\":6853:6989   */\n  pop\n    /* \"#utility.yul\":6800:6989   */\n  pop\n  pop\n  jump\t// out\n    /* \"#utility.yul\":6995:7181   */\ntag_43:\n    /* \"#utility.yul\":7055:7175   */\ntag_133:\n    /* \"#utility.yul\":7072:7075   */\n  dup2\n    /* \"#utility.yul\":7065:7070   */\n  dup2\n    /* \"#utility.yul\":7062:7076   */\n  lt\n    /* \"#utility.yul\":7055:7175   */\n  iszero\n  tag_135\n  jumpi\n    /* \"#utility.yul\":7126:7165   */\n  tag_136\n    /* \"#utility.yul\":7163:7164   */\n  0x00\n    /* \"#utility.yul\":7156:7161   */\n  dup3\n    /* \"#utility.yul\":7126:7165   */\n  tag_42\n  jump\t// in\ntag_136:\n    /* \"#utility.yul\":7099:7100   */\n  0x01\n    /* \"#utility.yul\":7092:7097   */\n  dup2\n    /* \"#utility.yul\":7088:7101   */\n  add\n    /* \"#utility.yul\":7079:7101   */\n  swap1\n  pop\n    /* \"#utility.yul\":7055:7175   */\n  jump(tag_133)\ntag_135:\n    /* \"#utility.yul\":6995:7181   */\n  pop\n  pop\n  jump\t// out\n    /* \"#utility.yul\":7187:7730   */\ntag_44:\n    /* \"#utility.yul\":7288:7290   */\n  0x1f\n    /* \"#utility.yul\":7283:7286   */\n  dup3\n    /* \"#utility.yul\":7280:7291   */\n  gt\n    /* \"#utility.yul\":7277:7723   */\n  iszero\n  tag_138\n  jumpi\n    /* \"#utility.yul\":7322:7360   */\n  tag_139\n    /* \"#utility.yul\":7354:7359   */\n  dup2\n    /* \"#utility.yul\":7322:7360   */\n  tag_33\n  jump\t// in\ntag_139:\n    /* \"#utility.yul\":7406:7435   */\n  tag_140\n    /* \"#utility.yul\":7424:7434   */\n  dup5\n    /* \"#utility.yul\":7406:7435   */\n  tag_34\n  jump\t// in\ntag_140:\n    /* \"#utility.yul\":7396:7404   */\n  dup2\n    /* \"#utility.yul\":7392:7436   */\n  add\n    /* \"#utility.yul\":7589:7591   */\n  0x20\n    /* \"#utility.yul\":7577:7587   */\n  dup6\n    /* \"#utility.yul\":7574:7592   */\n  lt\n    /* \"#utility.yul\":7571:7620   */\n  iszero\n  tag_141\n  jumpi\n    /* \"#utility.yul\":7610:7618   */\n  dup2\n    /* \"#utility.yul\":7595:7618   */\n  swap1\n  pop\n    /* \"#utility.yul\":7571:7620   */\ntag_141:\n    /* \"#utility.yul\":7633:7713   */\n  tag_142\n    /* \"#utility.yul\":7689:7711   */\n  tag_143\n    /* \"#utility.yul\":7707:7710   */\n  dup6\n    /* \"#utility.yul\":7689:7711   */\n  tag_34\n  jump\t// in\ntag_143:\n    /* \"#utility.yul\":7679:7687   */\n  dup4\n    /* \"#utility.yul\":7675:7712   */\n  add\n    /* \"#utility.yul\":7662:7673   */\n  dup3\n    /* \"#utility.yul\":7633:7713   */\n  tag_43\n  jump\t// in\ntag_142:\n    /* \"#utility.yul\":7292:7723   */\n  pop\n  pop\n    /* \"#utility.yul\":7277:7723   */\ntag_138:\n    /* \"#utility.yul\":7187:7730   */\n  pop\n  pop\n  pop\n  jump\t// out\n    /* \"#utility.yul\":7736:7853   */\ntag_45:\n    /* \"#utility.yul\":7790:7798   */\n  0x00\n    /* \"#utility.yul\":7840:7845   */\n  dup3\n    /* \"#utility.yul\":7834:7838   */\n  dup3\n    /* \"#utility.yul\":7830:7846   */\n  shr\n    /* \"#utility.yul\":7809:7846   */\n  swap1\n  pop\n    /* \"#utility.yul\":7736:7853   */\n  swap3\n  swap2\n  pop\n  pop\n  jump\t// out\n    /* \"#utility.yul\":7859:8028   */\ntag_46:\n    /* \"#utility.yul\":7903:7909   */\n  0x00\n    /* \"#utility.yul\":7936:7987   */\n  tag_146\n    /* \"#utility.yul\":7984:7985   */\n  0x00\n    /* \"#utility.yul\":7980:7986   */\n  not\n    /* \"#utility.yul\":7972:7977   */\n  dup5\n    /* \"#utility.yul\":7969:7970   */\n  0x08\n    /* \"#utility.yul\":7965:7978   */\n  mul\n    /* \"#utility.yul\":7936:7987   */\n  tag_45\n  jump\t// in\ntag_146:\n    /* \"#utility.yul\":7932:7988   */\n  not\n    /* \"#utility.yul\":8017:8021   */\n  dup1\n    /* \"#utility.yul\":8011:8015   */\n  dup4\n    /* \"#utility.yul\":8007:8022   */\n  and\n    /* \"#utility.yul\":7997:8022   */\n  swap2\n  pop\n    /* \"#utility.yul\":7910:8028   */\n  pop\n    /* \"#utility.yul\":7859:8028   */\n  swap3\n  swap2\n  pop\n  pop\n  jump\t// out\n    /* \"#utility.yul\":8033:8328   */\ntag_47:\n    /* \"#utility.yul\":8109:8113   */\n  0x00\n    /* \"#utility.yul\":8255:8284   */\n  tag_148\n    /* \"#utility.yul\":8280:8283   */\n  dup4\n    /* \"#utility.yul\":8274:8278   */\n  dup4\n    /* \"#utility.yul\":8255:8284   */\n  tag_46\n  jump\t// in\ntag_148:\n    /* \"#utility.yul\":8247:8284   */\n  swap2\n  pop\n    /* \"#utility.yul\":8317:8320   */\n  dup3\n    /* \"#utility.yul\":8314:8315   */\n  0x02\n    /* \"#utility.yul\":8310:8321   */\n  mul\n    /* \"#utility.yul\":8304:8308   */\n  dup3\n    /* \"#utility.yul\":8301:8322   */\n  or\n    /* \"#utility.yul\":8293:8322   */\n  swap1\n  pop\n    /* \"#utility.yul\":8033:8328   */\n  swap3\n  swap2\n  pop\n  pop\n  jump\t// out\n    /* \"#utility.yul\":8333:9728   */\ntag_7:\n    /* \"#utility.yul\":8450:8487   */\n  tag_150\n    /* \"#utility.yul\":8483:8486   */\n  dup3\n    /* \"#utility.yul\":8450:8487   */\n  tag_30\n  jump\t// in\ntag_150:\n    /* \"#utility.yul\":8552:8570   */\n  0xffffffffffffffff\n    /* \"#utility.yul\":8544:8550   */\n  dup2\n    /* \"#utility.yul\":8541:8571   */\n  gt\n    /* \"#utility.yul\":8538:8594   */\n  iszero\n  tag_151\n  jumpi\n    /* \"#utility.yul\":8574:8592   */\n  tag_152\n  tag_20\n  jump\t// in\ntag_152:\n    /* \"#utility.yul\":8538:8594   */\ntag_151:\n    /* \"#utility.yul\":8618:8656   */\n  tag_153\n    /* \"#utility.yul\":8650:8654   */\n  dup3\n    /* \"#utility.yul\":8644:8655   */\n  sload\n    /* \"#utility.yul\":8618:8656   */\n  tag_32\n  jump\t// in\ntag_153:\n    /* \"#utility.yul\":8703:8770   */\n  tag_154\n    /* \"#utility.yul\":8763:8769   */\n  dup3\n    /* \"#utility.yul\":8755:8761   */\n  dup3\n    /* \"#utility.yul\":8749:8753   */\n  dup6\n    /* \"#utility.yul\":8703:8770   */\n  tag_44\n  jump\t// in\ntag_154:\n    /* \"#utility.yul\":8797:8798   */\n  0x00\n    /* \"#utility.yul\":8821:8825   */\n  0x20\n    /* \"#utility.yul\":8808:8825   */\n  swap1\n  pop\n    /* \"#utility.yul\":8853:8855   */\n  0x1f\n    /* \"#utility.yul\":8845:8851   */\n  dup4\n    /* \"#utility.yul\":8842:8856   */\n  gt\n    /* \"#utility.yul\":8870:8871   */\n  0x01\n    /* \"#utility.yul\":8865:9483   */\n  dup2\n  eq\n  tag_156\n  jumpi\n    /* \"#utility.yul\":9527:9528   */\n  0x00\n    /* \"#utility.yul\":9544:9550   */\n  dup5\n    /* \"#utility.yul\":9541:9618   */\n  iszero\n  tag_157\n  jumpi\n    /* \"#utility.yul\":9593:9602   */\n  dup3\n    /* \"#utility.yul\":9588:9591   */\n  dup8\n    /* \"#utility.yul\":9584:9603   */\n  add\n    /* \"#utility.yul\":9578:9604   */\n  mload\n    /* \"#utility.yul\":9569:9604   */\n  swap1\n  pop\n    /* \"#utility.yul\":9541:9618   */\ntag_157:\n    /* \"#utility.yul\":9644:9711   */\n  tag_158\n    /* \"#utility.yul\":9704:9710   */\n  dup6\n    /* \"#utility.yul\":9697:9702   */\n  dup3\n    /* \"#utility.yul\":9644:9711   */\n  tag_47\n  jump\t// in\ntag_158:\n    /* \"#utility.yul\":9638:9642   */\n  dup7\n    /* \"#utility.yul\":9631:9712   */\n  sstore\n    /* \"#utility.yul\":9500:9722   */\n  pop\n    /* \"#utility.yul\":8835:9722   */\n  jump(tag_155)\n    /* \"#utility.yul\":8865:9483   */\ntag_156:\n    /* \"#utility.yul\":8917:8921   */\n  0x1f\n    /* \"#utility.yul\":8913:8922   */\n  not\n    /* \"#utility.yul\":8905:8911   */\n  dup5\n    /* \"#utility.yul\":8901:8923   */\n  and\n    /* \"#utility.yul\":8951:8988   */\n  tag_159\n    /* \"#utility.yul\":8983:8987   */\n  dup7\n    /* \"#utility.yul\":8951:8988   */\n  tag_33\n  jump\t// in\ntag_159:\n    /* \"#utility.yul\":9010:9011   */\n  0x00\n    /* \"#utility.yul\":9024:9232   */\ntag_160:\n    /* \"#utility.yul\":9038:9045   */\n  dup3\n    /* \"#utility.yul\":9035:9036   */\n  dup2\n    /* \"#utility.yul\":9032:9046   */\n  lt\n    /* \"#utility.yul\":9024:9232   */\n  iszero\n  tag_162\n  jumpi\n    /* \"#utility.yul\":9117:9126   */\n  dup5\n    /* \"#utility.yul\":9112:9115   */\n  dup10\n    /* \"#utility.yul\":9108:9127   */\n  add\n    /* \"#utility.yul\":9102:9128   */\n  mload\n    /* \"#utility.yul\":9094:9100   */\n  dup3\n    /* \"#utility.yul\":9087:9129   */\n  sstore\n    /* \"#utility.yul\":9168:9169   */\n  0x01\n    /* \"#utility.yul\":9160:9166   */\n  dup3\n    /* \"#utility.yul\":9156:9170   */\n  add\n    /* \"#utility.yul\":9146:9170   */\n  swap2\n  pop\n    /* \"#utility.yul\":9215:9217   */\n  0x20\n    /* \"#utility.yul\":9204:9213   */\n  dup6\n    /* \"#utility.yul\":9200:9218   */\n  add\n    /* \"#utility.yul\":9187:9218   */\n  swap5\n  pop\n    /* \"#utility.yul\":9061:9065   */\n  0x20\n    /* \"#utility.yul\":9058:9059   */\n  dup2\n    /* \"#utility.yul\":9054:9066   */\n  add\n    /* \"#utility.yul\":9049:9066   */\n  swap1\n  pop\n    /* \"#utility.yul\":9024:9232   */\n  jump(tag_160)\ntag_162:\n    /* \"#utility.yul\":9260:9266   */\n  dup7\n    /* \"#utility.yul\":9251:9258   */\n  dup4\n    /* \"#utility.yul\":9248:9267   */\n  lt\n    /* \"#utility.yul\":9245:9424   */\n  iszero\n  tag_163\n  jumpi\n    /* \"#utility.yul\":9318:9327   */\n  dup5\n    /* \"#utility.yul\":9313:9316   */\n  dup10\n    /* \"#utility.yul\":9309:9328   */\n  add\n    /* \"#utility.yul\":9303:9329   */\n  mload\n    /* \"#utility.yul\":9361:9409   */\n  tag_164\n    /* \"#utility.yul\":9403:9407   */\n  0x1f\n    /* \"#utility.yul\":9395:9401   */\n  dup10\n    /* \"#utility.yul\":9391:9408   */\n  and\n    /* \"#utility.yul\":9380:9389   */\n  dup3\n    /* \"#utility.yul\":9361:9409   */\n  tag_46\n  jump\t// in\ntag_164:\n    /* \"#utility.yul\":9353:9359   */\n  dup4\n    /* \"#utility.yul\":9346:9410   */\n  sstore\n    /* \"#utility.yul\":9268:9424   */\n  pop\n    /* \"#utility.yul\":9245:9424   */\ntag_163:\n    /* \"#utility.yul\":9470:9471   */\n  0x01\n    /* \"#utility.yul\":9466:9467   */\n  0x02\n    /* \"#utility.yul\":9458:9464   */\n  dup9\n    /* \"#utility.yul\":9454:9468   */\n  mul\n    /* \"#utility.yul\":9450:9472   */\n  add\n    /* \"#utility.yul\":9444:9448   */\n  dup9\n    /* \"#utility.yul\":9437:9473   */\n  sstore\n    /* \"#utility.yul\":8872:9483   */\n  pop\n  pop\n  pop\n    /* \"#utility.yul\":8835:9722   */\ntag_155:\n  pop\n    /* \"#utility.yul\":8425:9728   */\n  pop\n  pop\n  pop\n    /* \"#utility.yul\":8333:9728   */\n  pop\n  pop\n  jump\t// out\n    /* \"contracts/Auction.sol\":482:1621  contract Auction {... */\ntag_9:\n  dataSize(sub_0)\n  dup1\n  dataOffset(sub_0)\n  0x00\n  codecopy\n  0x00\n  return\nstop\n\nsub_0: assembly {\n        /* \"contracts/Auction.sol\":482:1621  contract Auction {... */\n      mstore(0x40, 0x80)\n      jumpi(tag_1, lt(calldatasize, 0x04))\n      shr(0xe0, calldataload(0x00))\n      dup1\n      0x454a2ab3\n      eq\n      tag_2\n      jumpi\n      dup1\n      0x91f90157\n      eq\n      tag_3\n      jumpi\n      dup1\n      0xd57bde79\n      eq\n      tag_4\n      jumpi\n      dup1\n      0xf6b4dfb4\n      eq\n      tag_5\n      jumpi\n    tag_1:\n      0x00\n      dup1\n      revert\n        /* \"contracts/Auction.sol\":1020:1513  function bid(uint256 bidAmount) public payable {... */\n    tag_2:\n      tag_6\n      0x04\n      dup1\n      calldatasize\n      sub\n      dup2\n      add\n      swap1\n      tag_7\n      swap2\n      swap1\n      tag_8\n      jump\t// in\n    tag_7:\n      tag_9\n      jump\t// in\n    tag_6:\n      stop\n        /* \"contracts/Auction.sol\":939:975  address payable public highestBidder */\n    tag_3:\n      callvalue\n      dup1\n      iszero\n      tag_10\n      jumpi\n      0x00\n      dup1\n      revert\n    tag_10:\n      pop\n      tag_11\n      tag_12\n      jump\t// in\n    tag_11:\n      mload(0x40)\n      tag_13\n      swap2\n      swap1\n      tag_14\n      jump\t// in\n    tag_13:\n      mload(0x40)\n      dup1\n      swap2\n      sub\n      swap1\n      return\n        /* \"contracts/Auction.sol\":982:1011  uint256 public highestBid = 0 */\n    tag_4:\n      callvalue\n      dup1\n      iszero\n      tag_15\n      jumpi\n      0x00\n      dup1\n      revert\n    tag_15:\n      pop\n      tag_16\n      tag_17\n      jump\t// in\n    tag_16:\n      mload(0x40)\n      tag_18\n      swap2\n      swap1\n      tag_19\n      jump\t// in\n    tag_18:\n      mload(0x40)\n      dup1\n      swap2\n      sub\n      swap1\n      return\n        /* \"contracts/Auction.sol\":1521:1616  function contractAddress() public view returns (address){... */\n    tag_5:\n      callvalue\n      dup1\n      iszero\n      tag_20\n      jumpi\n      0x00\n      dup1\n      revert\n    tag_20:\n      pop\n      tag_21\n      tag_22\n      jump\t// in\n    tag_21:\n      mload(0x40)\n      tag_23\n      swap2\n      swap1\n      tag_24\n      jump\t// in\n    tag_23:\n      mload(0x40)\n      dup1\n      swap2\n      sub\n      swap1\n      return\n        /* \"contracts/Auction.sol\":1020:1513  function bid(uint256 bidAmount) public payable {... */\n    tag_9:\n        /* \"contracts/Auction.sol\":1098:1108  highestBid */\n      sload(0x05)\n        /* \"contracts/Auction.sol\":1086:1095  bidAmount */\n      dup2\n        /* \"contracts/Auction.sol\":1086:1108  bidAmount > highestBid */\n      gt\n        /* \"contracts/Auction.sol\":1078:1143  require(bidAmount > highestBid, \"There already is a higher bid.\") */\n      tag_26\n      jumpi\n      mload(0x40)\n      0x08c379a000000000000000000000000000000000000000000000000000000000\n      dup2\n      mstore\n      0x04\n      add\n      tag_27\n      swap1\n      tag_28\n      jump\t// in\n    tag_27:\n      mload(0x40)\n      dup1\n      swap2\n      sub\n      swap1\n      revert\n    tag_26:\n        /* \"contracts/Auction.sol\":1179:1189  msg.sender */\n      caller\n        /* \"contracts/Auction.sol\":1162:1189  highestBidder != msg.sender */\n      0xffffffffffffffffffffffffffffffffffffffff\n      and\n        /* \"contracts/Auction.sol\":1162:1175  highestBidder */\n      0x04\n      0x00\n      swap1\n      sload\n      swap1\n      0x0100\n      exp\n      swap1\n      div\n      0xffffffffffffffffffffffffffffffffffffffff\n      and\n        /* \"contracts/Auction.sol\":1162:1189  highestBidder != msg.sender */\n      0xffffffffffffffffffffffffffffffffffffffff\n      and\n      sub\n        /* \"contracts/Auction.sol\":1154:1229  require(highestBidder != msg.sender, \"You already are the highest bidder.\") */\n      tag_29\n      jumpi\n      mload(0x40)\n      0x08c379a000000000000000000000000000000000000000000000000000000000\n      dup2\n      mstore\n      0x04\n      add\n      tag_30\n      swap1\n      tag_31\n      jump\t// in\n    tag_30:\n      mload(0x40)\n      dup1\n      swap2\n      sub\n      swap1\n      revert\n    tag_29:\n        /* \"contracts/Auction.sol\":1268:1269  0 */\n      0x00\n        /* \"contracts/Auction.sol\":1254:1264  highestBid */\n      sload(0x05)\n        /* \"contracts/Auction.sol\":1254:1269  highestBid != 0 */\n      eq\n        /* \"contracts/Auction.sol\":1250:1417  if (highestBid != 0) {... */\n      tag_32\n      jumpi\n        /* \"contracts/Auction.sol\":1370:1383  highestBidder */\n      0x04\n      0x00\n      swap1\n      sload\n      swap1\n      0x0100\n      exp\n      swap1\n      div\n      0xffffffffffffffffffffffffffffffffffffffff\n      and\n        /* \"contracts/Auction.sol\":1362:1393  payable(highestBidder).transfer */\n      0xffffffffffffffffffffffffffffffffffffffff\n      and\n        /* \"contracts/Auction.sol\":1362:1405  payable(highestBidder).transfer(highestBid) */\n      0x08fc\n        /* \"contracts/Auction.sol\":1394:1404  highestBid */\n      sload(0x05)\n        /* \"contracts/Auction.sol\":1362:1405  payable(highestBidder).transfer(highestBid) */\n      swap1\n      dup2\n      iszero\n      mul\n      swap1\n      mload(0x40)\n      0x00\n      mload(0x40)\n      dup1\n      dup4\n      sub\n      dup2\n      dup6\n      dup9\n      dup9\n      call\n      swap4\n      pop\n      pop\n      pop\n      pop\n      iszero\n      dup1\n      iszero\n      tag_34\n      jumpi\n      returndatasize\n      0x00\n      dup1\n      returndatacopy\n      revert(0x00, returndatasize)\n    tag_34:\n      pop\n        /* \"contracts/Auction.sol\":1250:1417  if (highestBid != 0) {... */\n    tag_32:\n        /* \"contracts/Auction.sol\":1461:1471  msg.sender */\n      caller\n        /* \"contracts/Auction.sol\":1437:1450  highestBidder */\n      0x04\n      0x00\n        /* \"contracts/Auction.sol\":1437:1472  highestBidder = payable(msg.sender) */\n      0x0100\n      exp\n      dup2\n      sload\n      dup2\n      0xffffffffffffffffffffffffffffffffffffffff\n      mul\n      not\n      and\n      swap1\n      dup4\n      0xffffffffffffffffffffffffffffffffffffffff\n      and\n      mul\n      or\n      swap1\n      sstore\n      pop\n        /* \"contracts/Auction.sol\":1496:1505  bidAmount */\n      dup1\n        /* \"contracts/Auction.sol\":1483:1493  highestBid */\n      0x05\n        /* \"contracts/Auction.sol\":1483:1505  highestBid = bidAmount */\n      dup2\n      swap1\n      sstore\n      pop\n        /* \"contracts/Auction.sol\":1020:1513  function bid(uint256 bidAmount) public payable {... */\n      pop\n      jump\t// out\n        /* \"contracts/Auction.sol\":939:975  address payable public highestBidder */\n    tag_12:\n      0x04\n      0x00\n      swap1\n      sload\n      swap1\n      0x0100\n      exp\n      swap1\n      div\n      0xffffffffffffffffffffffffffffffffffffffff\n      and\n      dup2\n      jump\t// out\n        /* \"contracts/Auction.sol\":982:1011  uint256 public highestBid = 0 */\n    tag_17:\n      sload(0x05)\n      dup2\n      jump\t// out\n        /* \"contracts/Auction.sol\":1521:1616  function contractAddress() public view returns (address){... */\n    tag_22:\n        /* \"contracts/Auction.sol\":1569:1576  address */\n      0x00\n        /* \"contracts/Auction.sol\":1603:1607  this */\n      address\n        /* \"contracts/Auction.sol\":1588:1608  return address(this) */\n      swap1\n      pop\n        /* \"contracts/Auction.sol\":1521:1616  function contractAddress() public view returns (address){... */\n      swap1\n      jump\t// out\n        /* \"#utility.yul\":88:205   */\n    tag_37:\n        /* \"#utility.yul\":197:198   */\n      0x00\n        /* \"#utility.yul\":194:195   */\n      dup1\n        /* \"#utility.yul\":187:199   */\n      revert\n        /* \"#utility.yul\":334:411   */\n    tag_39:\n        /* \"#utility.yul\":371:378   */\n      0x00\n        /* \"#utility.yul\":400:405   */\n      dup2\n        /* \"#utility.yul\":389:405   */\n      swap1\n      pop\n        /* \"#utility.yul\":334:411   */\n      swap2\n      swap1\n      pop\n      jump\t// out\n        /* \"#utility.yul\":417:539   */\n    tag_40:\n        /* \"#utility.yul\":490:514   */\n      tag_59\n        /* \"#utility.yul\":508:513   */\n      dup2\n        /* \"#utility.yul\":490:514   */\n      tag_39\n      jump\t// in\n    tag_59:\n        /* \"#utility.yul\":483:488   */\n      dup2\n        /* \"#utility.yul\":480:515   */\n      eq\n        /* \"#utility.yul\":470:533   */\n      tag_60\n      jumpi\n        /* \"#utility.yul\":529:530   */\n      0x00\n        /* \"#utility.yul\":526:527   */\n      dup1\n        /* \"#utility.yul\":519:531   */\n      revert\n        /* \"#utility.yul\":470:533   */\n    tag_60:\n        /* \"#utility.yul\":417:539   */\n      pop\n      jump\t// out\n        /* \"#utility.yul\":545:684   */\n    tag_41:\n        /* \"#utility.yul\":591:596   */\n      0x00\n        /* \"#utility.yul\":629:635   */\n      dup2\n        /* \"#utility.yul\":616:636   */\n      calldataload\n        /* \"#utility.yul\":607:636   */\n      swap1\n      pop\n        /* \"#utility.yul\":645:678   */\n      tag_62\n        /* \"#utility.yul\":672:677   */\n      dup2\n        /* \"#utility.yul\":645:678   */\n      tag_40\n      jump\t// in\n    tag_62:\n        /* \"#utility.yul\":545:684   */\n      swap3\n      swap2\n      pop\n      pop\n      jump\t// out\n        /* \"#utility.yul\":690:1019   */\n    tag_8:\n        /* \"#utility.yul\":749:755   */\n      0x00\n        /* \"#utility.yul\":798:800   */\n      0x20\n        /* \"#utility.yul\":786:795   */\n      dup3\n        /* \"#utility.yul\":777:784   */\n      dup5\n        /* \"#utility.yul\":773:796   */\n      sub\n        /* \"#utility.yul\":769:801   */\n      slt\n        /* \"#utility.yul\":766:885   */\n      iszero\n      tag_64\n      jumpi\n        /* \"#utility.yul\":804:883   */\n      tag_65\n      tag_37\n      jump\t// in\n    tag_65:\n        /* \"#utility.yul\":766:885   */\n    tag_64:\n        /* \"#utility.yul\":924:925   */\n      0x00\n        /* \"#utility.yul\":949:1002   */\n      tag_66\n        /* \"#utility.yul\":994:1001   */\n      dup5\n        /* \"#utility.yul\":985:991   */\n      dup3\n        /* \"#utility.yul\":974:983   */\n      dup6\n        /* \"#utility.yul\":970:992   */\n      add\n        /* \"#utility.yul\":949:1002   */\n      tag_41\n      jump\t// in\n    tag_66:\n        /* \"#utility.yul\":939:1002   */\n      swap2\n      pop\n        /* \"#utility.yul\":895:1012   */\n      pop\n        /* \"#utility.yul\":690:1019   */\n      swap3\n      swap2\n      pop\n      pop\n      jump\t// out\n        /* \"#utility.yul\":1025:1151   */\n    tag_42:\n        /* \"#utility.yul\":1062:1069   */\n      0x00\n        /* \"#utility.yul\":1102:1144   */\n      0xffffffffffffffffffffffffffffffffffffffff\n        /* \"#utility.yul\":1095:1100   */\n      dup3\n        /* \"#utility.yul\":1091:1145   */\n      and\n        /* \"#utility.yul\":1080:1145   */\n      swap1\n      pop\n        /* \"#utility.yul\":1025:1151   */\n      swap2\n      swap1\n      pop\n      jump\t// out\n        /* \"#utility.yul\":1157:1261   */\n    tag_43:\n        /* \"#utility.yul\":1202:1209   */\n      0x00\n        /* \"#utility.yul\":1231:1255   */\n      tag_69\n        /* \"#utility.yul\":1249:1254   */\n      dup3\n        /* \"#utility.yul\":1231:1255   */\n      tag_42\n      jump\t// in\n    tag_69:\n        /* \"#utility.yul\":1220:1255   */\n      swap1\n      pop\n        /* \"#utility.yul\":1157:1261   */\n      swap2\n      swap1\n      pop\n      jump\t// out\n        /* \"#utility.yul\":1267:1409   */\n    tag_44:\n        /* \"#utility.yul\":1370:1402   */\n      tag_71\n        /* \"#utility.yul\":1396:1401   */\n      dup2\n        /* \"#utility.yul\":1370:1402   */\n      tag_43\n      jump\t// in\n    tag_71:\n        /* \"#utility.yul\":1365:1368   */\n      dup3\n        /* \"#utility.yul\":1358:1403   */\n      mstore\n        /* \"#utility.yul\":1267:1409   */\n      pop\n      pop\n      jump\t// out\n        /* \"#utility.yul\":1415:1669   */\n    tag_14:\n        /* \"#utility.yul\":1524:1528   */\n      0x00\n        /* \"#utility.yul\":1562:1564   */\n      0x20\n        /* \"#utility.yul\":1551:1560   */\n      dup3\n        /* \"#utility.yul\":1547:1565   */\n      add\n        /* \"#utility.yul\":1539:1565   */\n      swap1\n      pop\n        /* \"#utility.yul\":1575:1662   */\n      tag_73\n        /* \"#utility.yul\":1659:1660   */\n      0x00\n        /* \"#utility.yul\":1648:1657   */\n      dup4\n        /* \"#utility.yul\":1644:1661   */\n      add\n        /* \"#utility.yul\":1635:1641   */\n      dup5\n        /* \"#utility.yul\":1575:1662   */\n      tag_44\n      jump\t// in\n    tag_73:\n        /* \"#utility.yul\":1415:1669   */\n      swap3\n      swap2\n      pop\n      pop\n      jump\t// out\n        /* \"#utility.yul\":1675:1793   */\n    tag_45:\n        /* \"#utility.yul\":1762:1786   */\n      tag_75\n        /* \"#utility.yul\":1780:1785   */\n      dup2\n        /* \"#utility.yul\":1762:1786   */\n      tag_39\n      jump\t// in\n    tag_75:\n        /* \"#utility.yul\":1757:1760   */\n      dup3\n        /* \"#utility.yul\":1750:1787   */\n      mstore\n        /* \"#utility.yul\":1675:1793   */\n      pop\n      pop\n      jump\t// out\n        /* \"#utility.yul\":1799:2021   */\n    tag_19:\n        /* \"#utility.yul\":1892:1896   */\n      0x00\n        /* \"#utility.yul\":1930:1932   */\n      0x20\n        /* \"#utility.yul\":1919:1928   */\n      dup3\n        /* \"#utility.yul\":1915:1933   */\n      add\n        /* \"#utility.yul\":1907:1933   */\n      swap1\n      pop\n        /* \"#utility.yul\":1943:2014   */\n      tag_77\n        /* \"#utility.yul\":2011:2012   */\n      0x00\n        /* \"#utility.yul\":2000:2009   */\n      dup4\n        /* \"#utility.yul\":1996:2013   */\n      add\n        /* \"#utility.yul\":1987:1993   */\n      dup5\n        /* \"#utility.yul\":1943:2014   */\n      tag_45\n      jump\t// in\n    tag_77:\n        /* \"#utility.yul\":1799:2021   */\n      swap3\n      swap2\n      pop\n      pop\n      jump\t// out\n        /* \"#utility.yul\":2027:2123   */\n    tag_46:\n        /* \"#utility.yul\":2064:2071   */\n      0x00\n        /* \"#utility.yul\":2093:2117   */\n      tag_79\n        /* \"#utility.yul\":2111:2116   */\n      dup3\n        /* \"#utility.yul\":2093:2117   */\n      tag_42\n      jump\t// in\n    tag_79:\n        /* \"#utility.yul\":2082:2117   */\n      swap1\n      pop\n        /* \"#utility.yul\":2027:2123   */\n      swap2\n      swap1\n      pop\n      jump\t// out\n        /* \"#utility.yul\":2129:2247   */\n    tag_47:\n        /* \"#utility.yul\":2216:2240   */\n      tag_81\n        /* \"#utility.yul\":2234:2239   */\n      dup2\n        /* \"#utility.yul\":2216:2240   */\n      tag_46\n      jump\t// in\n    tag_81:\n        /* \"#utility.yul\":2211:2214   */\n      dup3\n        /* \"#utility.yul\":2204:2241   */\n      mstore\n        /* \"#utility.yul\":2129:2247   */\n      pop\n      pop\n      jump\t// out\n        /* \"#utility.yul\":2253:2475   */\n    tag_24:\n        /* \"#utility.yul\":2346:2350   */\n      0x00\n        /* \"#utility.yul\":2384:2386   */\n      0x20\n        /* \"#utility.yul\":2373:2382   */\n      dup3\n        /* \"#utility.yul\":2369:2387   */\n      add\n        /* \"#utility.yul\":2361:2387   */\n      swap1\n      pop\n        /* \"#utility.yul\":2397:2468   */\n      tag_83\n        /* \"#utility.yul\":2465:2466   */\n      0x00\n        /* \"#utility.yul\":2454:2463   */\n      dup4\n        /* \"#utility.yul\":2450:2467   */\n      add\n        /* \"#utility.yul\":2441:2447   */\n      dup5\n        /* \"#utility.yul\":2397:2468   */\n      tag_47\n      jump\t// in\n    tag_83:\n        /* \"#utility.yul\":2253:2475   */\n      swap3\n      swap2\n      pop\n      pop\n      jump\t// out\n        /* \"#utility.yul\":2481:2650   */\n    tag_48:\n        /* \"#utility.yul\":2565:2576   */\n      0x00\n        /* \"#utility.yul\":2599:2605   */\n      dup3\n        /* \"#utility.yul\":2594:2597   */\n      dup3\n        /* \"#utility.yul\":2587:2606   */\n      mstore\n        /* \"#utility.yul\":2639:2643   */\n      0x20\n        /* \"#utility.yul\":2634:2637   */\n      dup3\n        /* \"#utility.yul\":2630:2644   */\n      add\n        /* \"#utility.yul\":2615:2644   */\n      swap1\n      pop\n        /* \"#utility.yul\":2481:2650   */\n      swap3\n      swap2\n      pop\n      pop\n      jump\t// out\n        /* \"#utility.yul\":2656:2836   */\n    tag_49:\n        /* \"#utility.yul\":2796:2828   */\n      0x546865726520616c7265616479206973206120686967686572206269642e0000\n        /* \"#utility.yul\":2792:2793   */\n      0x00\n        /* \"#utility.yul\":2784:2790   */\n      dup3\n        /* \"#utility.yul\":2780:2794   */\n      add\n        /* \"#utility.yul\":2773:2829   */\n      mstore\n        /* \"#utility.yul\":2656:2836   */\n      pop\n      jump\t// out\n        /* \"#utility.yul\":2842:3208   */\n    tag_50:\n        /* \"#utility.yul\":2984:2987   */\n      0x00\n        /* \"#utility.yul\":3005:3072   */\n      tag_87\n        /* \"#utility.yul\":3069:3071   */\n      0x1e\n        /* \"#utility.yul\":3064:3067   */\n      dup4\n        /* \"#utility.yul\":3005:3072   */\n      tag_48\n      jump\t// in\n    tag_87:\n        /* \"#utility.yul\":2998:3072   */\n      swap2\n      pop\n        /* \"#utility.yul\":3081:3174   */\n      tag_88\n        /* \"#utility.yul\":3170:3173   */\n      dup3\n        /* \"#utility.yul\":3081:3174   */\n      tag_49\n      jump\t// in\n    tag_88:\n        /* \"#utility.yul\":3199:3201   */\n      0x20\n        /* \"#utility.yul\":3194:3197   */\n      dup3\n        /* \"#utility.yul\":3190:3202   */\n      add\n        /* \"#utility.yul\":3183:3202   */\n      swap1\n      pop\n        /* \"#utility.yul\":2842:3208   */\n      swap2\n      swap1\n      pop\n      jump\t// out\n        /* \"#utility.yul\":3214:3633   */\n    tag_28:\n        /* \"#utility.yul\":3380:3384   */\n      0x00\n        /* \"#utility.yul\":3418:3420   */\n      0x20\n        /* \"#utility.yul\":3407:3416   */\n      dup3\n        /* \"#utility.yul\":3403:3421   */\n      add\n        /* \"#utility.yul\":3395:3421   */\n      swap1\n      pop\n        /* \"#utility.yul\":3467:3476   */\n      dup2\n        /* \"#utility.yul\":3461:3465   */\n      dup2\n        /* \"#utility.yul\":3457:3477   */\n      sub\n        /* \"#utility.yul\":3453:3454   */\n      0x00\n        /* \"#utility.yul\":3442:3451   */\n      dup4\n        /* \"#utility.yul\":3438:3455   */\n      add\n        /* \"#utility.yul\":3431:3478   */\n      mstore\n        /* \"#utility.yul\":3495:3626   */\n      tag_90\n        /* \"#utility.yul\":3621:3625   */\n      dup2\n        /* \"#utility.yul\":3495:3626   */\n      tag_50\n      jump\t// in\n    tag_90:\n        /* \"#utility.yul\":3487:3626   */\n      swap1\n      pop\n        /* \"#utility.yul\":3214:3633   */\n      swap2\n      swap1\n      pop\n      jump\t// out\n        /* \"#utility.yul\":3639:3861   */\n    tag_51:\n        /* \"#utility.yul\":3779:3813   */\n      0x596f7520616c7265616479206172652074686520686967686573742062696464\n        /* \"#utility.yul\":3775:3776   */\n      0x00\n        /* \"#utility.yul\":3767:3773   */\n      dup3\n        /* \"#utility.yul\":3763:3777   */\n      add\n        /* \"#utility.yul\":3756:3814   */\n      mstore\n        /* \"#utility.yul\":3848:3853   */\n      0x65722e0000000000000000000000000000000000000000000000000000000000\n        /* \"#utility.yul\":3843:3845   */\n      0x20\n        /* \"#utility.yul\":3835:3841   */\n      dup3\n        /* \"#utility.yul\":3831:3846   */\n      add\n        /* \"#utility.yul\":3824:3854   */\n      mstore\n        /* \"#utility.yul\":3639:3861   */\n      pop\n      jump\t// out\n        /* \"#utility.yul\":3867:4233   */\n    tag_52:\n        /* \"#utility.yul\":4009:4012   */\n      0x00\n        /* \"#utility.yul\":4030:4097   */\n      tag_93\n        /* \"#utility.yul\":4094:4096   */\n      0x23\n        /* \"#utility.yul\":4089:4092   */\n      dup4\n        /* \"#utility.yul\":4030:4097   */\n      tag_48\n      jump\t// in\n    tag_93:\n        /* \"#utility.yul\":4023:4097   */\n      swap2\n      pop\n        /* \"#utility.yul\":4106:4199   */\n      tag_94\n        /* \"#utility.yul\":4195:4198   */\n      dup3\n        /* \"#utility.yul\":4106:4199   */\n      tag_51\n      jump\t// in\n    tag_94:\n        /* \"#utility.yul\":4224:4226   */\n      0x40\n        /* \"#utility.yul\":4219:4222   */\n      dup3\n        /* \"#utility.yul\":4215:4227   */\n      add\n        /* \"#utility.yul\":4208:4227   */\n      swap1\n      pop\n        /* \"#utility.yul\":3867:4233   */\n      swap2\n      swap1\n      pop\n      jump\t// out\n        /* \"#utility.yul\":4239:4658   */\n    tag_31:\n        /* \"#utility.yul\":4405:4409   */\n      0x00\n        /* \"#utility.yul\":4443:4445   */\n      0x20\n        /* \"#utility.yul\":4432:4441   */\n      dup3\n        /* \"#utility.yul\":4428:4446   */\n      add\n        /* \"#utility.yul\":4420:4446   */\n      swap1\n      pop\n        /* \"#utility.yul\":4492:4501   */\n      dup2\n        /* \"#utility.yul\":4486:4490   */\n      dup2\n        /* \"#utility.yul\":4482:4502   */\n      sub\n        /* \"#utility.yul\":4478:4479   */\n      0x00\n        /* \"#utility.yul\":4467:4476   */\n      dup4\n        /* \"#utility.yul\":4463:4480   */\n      add\n        /* \"#utility.yul\":4456:4503   */\n      mstore\n        /* \"#utility.yul\":4520:4651   */\n      tag_96\n        /* \"#utility.yul\":4646:4650   */\n      dup2\n        /* \"#utility.yul\":4520:4651   */\n      tag_52\n      jump\t// in\n    tag_96:\n        /* \"#utility.yul\":4512:4651   */\n      swap1\n      pop\n        /* \"#utility.yul\":4239:4658   */\n      swap2\n      swap1\n      pop\n      jump\t// out\n\n    auxdata: 0xa2646970667358221220d88bb36440c64cd42bcb9899cc14e23af9d939c5b8d5d1bd34be12f7548eef3764736f6c63430008120033\n}\n",
				"bytecode": {
					"linkReferences": {},
					"object": "608060405260006005553480156200001657600080fd5b5060405162000be538038062000be583398181016040528101906200003c9190620002e4565b836000806101000a81548173ffffffffffffffffffffffffffffffffffffffff021916908373ffffffffffffffffffffffffffffffffffffffff16021790555082600190816200008d9190620005d5565b50816002819055508060039081620000a69190620005d5565b5050505050620006bc565b6000604051905090565b600080fd5b600080fd5b600073ffffffffffffffffffffffffffffffffffffffff82169050919050565b6000620000f282620000c5565b9050919050565b6200010481620000e5565b81146200011057600080fd5b50565b6000815190506200012481620000f9565b92915050565b600080fd5b600080fd5b6000601f19601f8301169050919050565b7f4e487b7100000000000000000000000000000000000000000000000000000000600052604160045260246000fd5b6200017f8262000134565b810181811067ffffffffffffffff82111715620001a157620001a062000145565b5b80604052505050565b6000620001b6620000b1565b9050620001c4828262000174565b919050565b600067ffffffffffffffff821115620001e757620001e662000145565b5b620001f28262000134565b9050602081019050919050565b60005b838110156200021f57808201518184015260208101905062000202565b60008484015250505050565b6000620002426200023c84620001c9565b620001aa565b9050828152602081018484840111156200026157620002606200012f565b5b6200026e848285620001ff565b509392505050565b600082601f8301126200028e576200028d6200012a565b5b8151620002a08482602086016200022b565b91505092915050565b6000819050919050565b620002be81620002a9565b8114620002ca57600080fd5b50565b600081519050620002de81620002b3565b92915050565b60008060008060808587031215620003015762000300620000bb565b5b6000620003118782880162000113565b945050602085015167ffffffffffffffff811115620003355762000334620000c0565b5b620003438782880162000276565b93505060406200035687828801620002cd565b925050606085015167ffffffffffffffff8111156200037a5762000379620000c0565b5b620003888782880162000276565b91505092959194509250565b600081519050919050565b7f4e487b7100000000000000000000000000000000000000000000000000000000600052602260045260246000fd5b60006002820490506001821680620003e757607f821691505b602082108103620003fd57620003fc6200039f565b5b50919050565b60008190508160005260206000209050919050565b60006020601f8301049050919050565b600082821b905092915050565b600060088302620004677fffffffffffffffffffffffffffffffffffffffffffffffffffffffffffffffff8262000428565b62000473868362000428565b95508019841693508086168417925050509392505050565b6000819050919050565b6000620004b6620004b0620004aa84620002a9565b6200048b565b620002a9565b9050919050565b6000819050919050565b620004d28362000495565b620004ea620004e182620004bd565b84845462000435565b825550505050565b600090565b62000501620004f2565b6200050e818484620004c7565b505050565b5b8181101562000536576200052a600082620004f7565b60018101905062000514565b5050565b601f82111562000585576200054f8162000403565b6200055a8462000418565b810160208510156200056a578190505b62000582620005798562000418565b83018262000513565b50505b505050565b600082821c905092915050565b6000620005aa600019846008026200058a565b1980831691505092915050565b6000620005c5838362000597565b9150826002028217905092915050565b620005e08262000394565b67ffffffffffffffff811115620005fc57620005fb62000145565b5b620006088254620003ce565b620006158282856200053a565b600060209050601f8311600181146200064d576000841562000638578287015190505b620006448582620005b7565b865550620006b4565b601f1984166200065d8662000403565b60005b82811015620006875784890151825560018201915060208501945060208101905062000660565b86831015620006a75784890151620006a3601f89168262000597565b8355505b6001600288020188555050505b505050505050565b61051980620006cc6000396000f3fe60806040526004361061003f5760003560e01c8063454a2ab31461004457806391f9015714610060578063d57bde791461008b578063f6b4dfb4146100b6575b600080fd5b61005e600480360381019061005991906102e5565b6100e1565b005b34801561006c57600080fd5b50610075610276565b6040516100829190610353565b60405180910390f35b34801561009757600080fd5b506100a061029c565b6040516100ad919061037d565b60405180910390f35b3480156100c257600080fd5b506100cb6102a2565b6040516100d891906103b9565b60405180910390f35b6005548111610125576040517f08c379a000000000000000000000000000000000000000000000000000000000815260040161011c90610431565b60405180910390fd5b3373ffffffffffffffffffffffffffffffffffffffff16600460009054906101000a900473ffffffffffffffffffffffffffffffffffffffff1673ffffffffffffffffffffffffffffffffffffffff16036101b5576040517f08c379a00000000000000000000000000000000000000000000000000000000081526004016101ac906104c3565b60405180910390fd5b60006005541461022b57600460009054906101000a900473ffffffffffffffffffffffffffffffffffffffff1673ffffffffffffffffffffffffffffffffffffffff166108fc6005549081150290604051600060405180830381858888f19350505050158015610229573d6000803e3d6000fd5b505b33600460006101000a81548173ffffffffffffffffffffffffffffffffffffffff021916908373ffffffffffffffffffffffffffffffffffffffff1602179055508060058190555050565b600460009054906101000a900473ffffffffffffffffffffffffffffffffffffffff1681565b60055481565b600030905090565b600080fd5b6000819050919050565b6102c2816102af565b81146102cd57600080fd5b50565b6000813590506102df816102b9565b92915050565b6000602082840312156102fb576102fa6102aa565b5b6000610309848285016102d0565b91505092915050565b600073ffffffffffffffffffffffffffffffffffffffff82169050919050565b600061033d82610312565b9050919050565b61034d81610332565b82525050565b60006020820190506103686000830184610344565b92915050565b610377816102af565b82525050565b6000602082019050610392600083018461036e565b92915050565b60006103a382610312565b9050919050565b6103b381610398565b82525050565b60006020820190506103ce60008301846103aa565b92915050565b600082825260208201905092915050565b7f546865726520616c7265616479206973206120686967686572206269642e0000600082015250565b600061041b601e836103d4565b9150610426826103e5565b602082019050919050565b6000602082019050818103600083015261044a8161040e565b9050919050565b7f596f7520616c726561647920617265207468652068696768657374206269646460008201527f65722e0000000000000000000000000000000000000000000000000000000000602082015250565b60006104ad6023836103d4565b91506104b882610451565b604082019050919050565b600060208201905081810360008301526104dc816104a0565b905091905056fea2646970667358221220d88bb36440c64cd42bcb9899cc14e23af9d939c5b8d5d1bd34be12f7548eef3764736f6c63430008120033",
					"opcodes": "PUSH1 0x80 PUSH1 0x40 MSTORE PUSH1 0x0 PUSH1 0x5 SSTORE CALLVALUE DUP1 ISZERO PUSH3 0x16 JUMPI PUSH1 0x0 DUP1 REVERT JUMPDEST POP PUSH1 0x40 MLOAD PUSH3 0xBE5 CODESIZE SUB DUP1 PUSH3 0xBE5 DUP4 CODECOPY DUP2 DUP2 ADD PUSH1 0x40 MSTORE DUP2 ADD SWAP1 PUSH3 0x3C SWAP2 SWAP1 PUSH3 0x2E4 JUMP JUMPDEST DUP4 PUSH1 0x0 DUP1 PUSH2 0x100 EXP DUP2 SLOAD DUP2 PUSH20 0xFFFFFFFFFFFFFFFFFFFFFFFFFFFFFFFFFFFFFFFF MUL NOT AND SWAP1 DUP4 PUSH20 0xFFFFFFFFFFFFFFFFFFFFFFFFFFFFFFFFFFFFFFFF AND MUL OR SWAP1 SSTORE POP DUP3 PUSH1 0x1 SWAP1 DUP2 PUSH3 0x8D SWAP2 SWAP1 PUSH3 0x5D5 JUMP JUMPDEST POP DUP2 PUSH1 0x2 DUP2 SWAP1 SSTORE POP DUP1 PUSH1 0x3 SWAP1 DUP2 PUSH3 0xA6 SWAP2 SWAP1 PUSH3 0x5D5 JUMP JUMPDEST POP POP POP POP POP PUSH3 0x6BC JUMP JUMPDEST PUSH1 0x0 PUSH1 0x40 MLOAD SWAP1 POP SWAP1 JUMP JUMPDEST PUSH1 0x0 DUP1 REVERT JUMPDEST PUSH1 0x0 DUP1 REVERT JUMPDEST PUSH1 0x0 PUSH20 0xFFFFFFFFFFFFFFFFFFFFFFFFFFFFFFFFFFFFFFFF DUP3 AND SWAP1 POP SWAP2 SWAP1 POP JUMP JUMPDEST PUSH1 0x0 PUSH3 0xF2 DUP3 PUSH3 0xC5 JUMP JUMPDEST SWAP1 POP SWAP2 SWAP1 POP JUMP JUMPDEST PUSH3 0x104 DUP2 PUSH3 0xE5 JUMP JUMPDEST DUP2 EQ PUSH3 0x110 JUMPI PUSH1 0x0 DUP1 REVERT JUMPDEST POP JUMP JUMPDEST PUSH1 0x0 DUP2 MLOAD SWAP1 POP PUSH3 0x124 DUP2 PUSH3 0xF9 JUMP JUMPDEST SWAP3 SWAP2 POP POP JUMP JUMPDEST PUSH1 0x0 DUP1 REVERT JUMPDEST PUSH1 0x0 DUP1 REVERT JUMPDEST PUSH1 0x0 PUSH1 0x1F NOT PUSH1 0x1F DUP4 ADD AND SWAP1 POP SWAP2 SWAP1 POP JUMP JUMPDEST PUSH32 0x4E487B7100000000000000000000000000000000000000000000000000000000 PUSH1 0x0 MSTORE PUSH1 0x41 PUSH1 0x4 MSTORE PUSH1 0x24 PUSH1 0x0 REVERT JUMPDEST PUSH3 0x17F DUP3 PUSH3 0x134 JUMP JUMPDEST DUP2 ADD DUP2 DUP2 LT PUSH8 0xFFFFFFFFFFFFFFFF DUP3 GT OR ISZERO PUSH3 0x1A1 JUMPI PUSH3 0x1A0 PUSH3 0x145 JUMP JUMPDEST JUMPDEST DUP1 PUSH1 0x40 MSTORE POP POP POP JUMP JUMPDEST PUSH1 0x0 PUSH3 0x1B6 PUSH3 0xB1 JUMP JUMPDEST SWAP1 POP PUSH3 0x1C4 DUP3 DUP3 PUSH3 0x174 JUMP JUMPDEST SWAP2 SWAP1 POP JUMP JUMPDEST PUSH1 0x0 PUSH8 0xFFFFFFFFFFFFFFFF DUP3 GT ISZERO PUSH3 0x1E7 JUMPI PUSH3 0x1E6 PUSH3 0x145 JUMP JUMPDEST JUMPDEST PUSH3 0x1F2 DUP3 PUSH3 0x134 JUMP JUMPDEST SWAP1 POP PUSH1 0x20 DUP2 ADD SWAP1 POP SWAP2 SWAP1 POP JUMP JUMPDEST PUSH1 0x0 JUMPDEST DUP4 DUP2 LT ISZERO PUSH3 0x21F JUMPI DUP1 DUP3 ADD MLOAD DUP2 DUP5 ADD MSTORE PUSH1 0x20 DUP2 ADD SWAP1 POP PUSH3 0x202 JUMP JUMPDEST PUSH1 0x0 DUP5 DUP5 ADD MSTORE POP POP POP POP JUMP JUMPDEST PUSH1 0x0 PUSH3 0x242 PUSH3 0x23C DUP5 PUSH3 0x1C9 JUMP JUMPDEST PUSH3 0x1AA JUMP JUMPDEST SWAP1 POP DUP3 DUP2 MSTORE PUSH1 0x20 DUP2 ADD DUP5 DUP5 DUP5 ADD GT ISZERO PUSH3 0x261 JUMPI PUSH3 0x260 PUSH3 0x12F JUMP JUMPDEST JUMPDEST PUSH3 0x26E DUP5 DUP3 DUP6 PUSH3 0x1FF JUMP JUMPDEST POP SWAP4 SWAP3 POP POP POP JUMP JUMPDEST PUSH1 0x0 DUP3 PUSH1 0x1F DUP4 ADD SLT PUSH3 0x28E JUMPI PUSH3 0x28D PUSH3 0x12A JUMP JUMPDEST JUMPDEST DUP2 MLOAD PUSH3 0x2A0 DUP5 DUP3 PUSH1 0x20 DUP7 ADD PUSH3 0x22B JUMP JUMPDEST SWAP2 POP POP SWAP3 SWAP2 POP POP JUMP JUMPDEST PUSH1 0x0 DUP2 SWAP1 POP SWAP2 SWAP1 POP JUMP JUMPDEST PUSH3 0x2BE DUP2 PUSH3 0x2A9 JUMP JUMPDEST DUP2 EQ PUSH3 0x2CA JUMPI PUSH1 0x0 DUP1 REVERT JUMPDEST POP JUMP JUMPDEST PUSH1 0x0 DUP2 MLOAD SWAP1 POP PUSH3 0x2DE DUP2 PUSH3 0x2B3 JUMP JUMPDEST SWAP3 SWAP2 POP POP JUMP JUMPDEST PUSH1 0x0 DUP1 PUSH1 0x0 DUP1 PUSH1 0x80 DUP6 DUP8 SUB SLT ISZERO PUSH3 0x301 JUMPI PUSH3 0x300 PUSH3 0xBB JUMP JUMPDEST JUMPDEST PUSH1 0x0 PUSH3 0x311 DUP8 DUP3 DUP9 ADD PUSH3 0x113 JUMP JUMPDEST SWAP5 POP POP PUSH1 0x20 DUP6 ADD MLOAD PUSH8 0xFFFFFFFFFFFFFFFF DUP2 GT ISZERO PUSH3 0x335 JUMPI PUSH3 0x334 PUSH3 0xC0 JUMP JUMPDEST JUMPDEST PUSH3 0x343 DUP8 DUP3 DUP9 ADD PUSH3 0x276 JUMP JUMPDEST SWAP4 POP POP PUSH1 0x40 PUSH3 0x356 DUP8 DUP3 DUP9 ADD PUSH3 0x2CD JUMP JUMPDEST SWAP3 POP POP PUSH1 0x60 DUP6 ADD MLOAD PUSH8 0xFFFFFFFFFFFFFFFF DUP2 GT ISZERO PUSH3 0x37A JUMPI PUSH3 0x379 PUSH3 0xC0 JUMP JUMPDEST JUMPDEST PUSH3 0x388 DUP8 DUP3 DUP9 ADD PUSH3 0x276 JUMP JUMPDEST SWAP2 POP POP SWAP3 SWAP6 SWAP2 SWAP5 POP SWAP3 POP JUMP JUMPDEST PUSH1 0x0 DUP2 MLOAD SWAP1 POP SWAP2 SWAP1 POP JUMP JUMPDEST PUSH32 0x4E487B7100000000000000000000000000000000000000000000000000000000 PUSH1 0x0 MSTORE PUSH1 0x22 PUSH1 0x4 MSTORE PUSH1 0x24 PUSH1 0x0 REVERT JUMPDEST PUSH1 0x0 PUSH1 0x2 DUP3 DIV SWAP1 POP PUSH1 0x1 DUP3 AND DUP1 PUSH3 0x3E7 JUMPI PUSH1 0x7F DUP3 AND SWAP2 POP JUMPDEST PUSH1 0x20 DUP3 LT DUP2 SUB PUSH3 0x3FD JUMPI PUSH3 0x3FC PUSH3 0x39F JUMP JUMPDEST JUMPDEST POP SWAP2 SWAP1 POP JUMP JUMPDEST PUSH1 0x0 DUP2 SWAP1 POP DUP2 PUSH1 0x0 MSTORE PUSH1 0x20 PUSH1 0x0 KECCAK256 SWAP1 POP SWAP2 SWAP1 POP JUMP JUMPDEST PUSH1 0x0 PUSH1 0x20 PUSH1 0x1F DUP4 ADD DIV SWAP1 POP SWAP2 SWAP1 POP JUMP JUMPDEST PUSH1 0x0 DUP3 DUP3 SHL SWAP1 POP SWAP3 SWAP2 POP POP JUMP JUMPDEST PUSH1 0x0 PUSH1 0x8 DUP4 MUL PUSH3 0x467 PUSH32 0xFFFFFFFFFFFFFFFFFFFFFFFFFFFFFFFFFFFFFFFFFFFFFFFFFFFFFFFFFFFFFFFF DUP3 PUSH3 0x428 JUMP JUMPDEST PUSH3 0x473 DUP7 DUP4 PUSH3 0x428 JUMP JUMPDEST SWAP6 POP DUP1 NOT DUP5 AND SWAP4 POP DUP1 DUP7 AND DUP5 OR SWAP3 POP POP POP SWAP4 SWAP3 POP POP POP JUMP JUMPDEST PUSH1 0x0 DUP2 SWAP1 POP SWAP2 SWAP1 POP JUMP JUMPDEST PUSH1 0x0 PUSH3 0x4B6 PUSH3 0x4B0 PUSH3 0x4AA DUP5 PUSH3 0x2A9 JUMP JUMPDEST PUSH3 0x48B JUMP JUMPDEST PUSH3 0x2A9 JUMP JUMPDEST SWAP1 POP SWAP2 SWAP1 POP JUMP JUMPDEST PUSH1 0x0 DUP2 SWAP1 POP SWAP2 SWAP1 POP JUMP JUMPDEST PUSH3 0x4D2 DUP4 PUSH3 0x495 JUMP JUMPDEST PUSH3 0x4EA PUSH3 0x4E1 DUP3 PUSH3 0x4BD JUMP JUMPDEST DUP5 DUP5 SLOAD PUSH3 0x435 JUMP JUMPDEST DUP3 SSTORE POP POP POP POP JUMP JUMPDEST PUSH1 0x0 SWAP1 JUMP JUMPDEST PUSH3 0x501 PUSH3 0x4F2 JUMP JUMPDEST PUSH3 0x50E DUP2 DUP5 DUP5 PUSH3 0x4C7 JUMP JUMPDEST POP POP POP JUMP JUMPDEST JUMPDEST DUP2 DUP2 LT ISZERO PUSH3 0x536 JUMPI PUSH3 0x52A PUSH1 0x0 DUP3 PUSH3 0x4F7 JUMP JUMPDEST PUSH1 0x1 DUP2 ADD SWAP1 POP PUSH3 0x514 JUMP JUMPDEST POP POP JUMP JUMPDEST PUSH1 0x1F DUP3 GT ISZERO PUSH3 0x585 JUMPI PUSH3 0x54F DUP2 PUSH3 0x403 JUMP JUMPDEST PUSH3 0x55A DUP5 PUSH3 0x418 JUMP JUMPDEST DUP2 ADD PUSH1 0x20 DUP6 LT ISZERO PUSH3 0x56A JUMPI DUP2 SWAP1 POP JUMPDEST PUSH3 0x582 PUSH3 0x579 DUP6 PUSH3 0x418 JUMP JUMPDEST DUP4 ADD DUP3 PUSH3 0x513 JUMP JUMPDEST POP POP JUMPDEST POP POP POP JUMP JUMPDEST PUSH1 0x0 DUP3 DUP3 SHR SWAP1 POP SWAP3 SWAP2 POP POP JUMP JUMPDEST PUSH1 0x0 PUSH3 0x5AA PUSH1 0x0 NOT DUP5 PUSH1 0x8 MUL PUSH3 0x58A JUMP JUMPDEST NOT DUP1 DUP4 AND SWAP2 POP POP SWAP3 SWAP2 POP POP JUMP JUMPDEST PUSH1 0x0 PUSH3 0x5C5 DUP4 DUP4 PUSH3 0x597 JUMP JUMPDEST SWAP2 POP DUP3 PUSH1 0x2 MUL DUP3 OR SWAP1 POP SWAP3 SWAP2 POP POP JUMP JUMPDEST PUSH3 0x5E0 DUP3 PUSH3 0x394 JUMP JUMPDEST PUSH8 0xFFFFFFFFFFFFFFFF DUP2 GT ISZERO PUSH3 0x5FC JUMPI PUSH3 0x5FB PUSH3 0x145 JUMP JUMPDEST JUMPDEST PUSH3 0x608 DUP3 SLOAD PUSH3 0x3CE JUMP JUMPDEST PUSH3 0x615 DUP3 DUP3 DUP6 PUSH3 0x53A JUMP JUMPDEST PUSH1 0x0 PUSH1 0x20 SWAP1 POP PUSH1 0x1F DUP4 GT PUSH1 0x1 DUP2 EQ PUSH3 0x64D JUMPI PUSH1 0x0 DUP5 ISZERO PUSH3 0x638 JUMPI DUP3 DUP8 ADD MLOAD SWAP1 POP JUMPDEST PUSH3 0x644 DUP6 DUP3 PUSH3 0x5B7 JUMP JUMPDEST DUP7 SSTORE POP PUSH3 0x6B4 JUMP JUMPDEST PUSH1 0x1F NOT DUP5 AND PUSH3 0x65D DUP7 PUSH3 0x403 JUMP JUMPDEST PUSH1 0x0 JUMPDEST DUP3 DUP2 LT ISZERO PUSH3 0x687 JUMPI DUP5 DUP10 ADD MLOAD DUP3 SSTORE PUSH1 0x1 DUP3 ADD SWAP2 POP PUSH1 0x20 DUP6 ADD SWAP5 POP PUSH1 0x20 DUP2 ADD SWAP1 POP PUSH3 0x660 JUMP JUMPDEST DUP7 DUP4 LT ISZERO PUSH3 0x6A7 JUMPI DUP5 DUP10 ADD MLOAD PUSH3 0x6A3 PUSH1 0x1F DUP10 AND DUP3 PUSH3 0x597 JUMP JUMPDEST DUP4 SSTORE POP JUMPDEST PUSH1 0x1 PUSH1 0x2 DUP9 MUL ADD DUP9 SSTORE POP POP POP JUMPDEST POP POP POP POP POP POP JUMP JUMPDEST PUSH2 0x519 DUP1 PUSH3 0x6CC PUSH1 0x0 CODECOPY PUSH1 0x0 RETURN INVALID PUSH1 0x80 PUSH1 0x40 MSTORE PUSH1 0x4 CALLDATASIZE LT PUSH2 0x3F JUMPI PUSH1 0x0 CALLDATALOAD PUSH1 0xE0 SHR DUP1 PUSH4 0x454A2AB3 EQ PUSH2 0x44 JUMPI DUP1 PUSH4 0x91F90157 EQ PUSH2 0x60 JUMPI DUP1 PUSH4 0xD57BDE79 EQ PUSH2 0x8B JUMPI DUP1 PUSH4 0xF6B4DFB4 EQ PUSH2 0xB6 JUMPI JUMPDEST PUSH1 0x0 DUP1 REVERT JUMPDEST PUSH2 0x5E PUSH1 0x4 DUP1 CALLDATASIZE SUB DUP2 ADD SWAP1 PUSH2 0x59 SWAP2 SWAP1 PUSH2 0x2E5 JUMP JUMPDEST PUSH2 0xE1 JUMP JUMPDEST STOP JUMPDEST CALLVALUE DUP1 ISZERO PUSH2 0x6C JUMPI PUSH1 0x0 DUP1 REVERT JUMPDEST POP PUSH2 0x75 PUSH2 0x276 JUMP JUMPDEST PUSH1 0x40 MLOAD PUSH2 0x82 SWAP2 SWAP1 PUSH2 0x353 JUMP JUMPDEST PUSH1 0x40 MLOAD DUP1 SWAP2 SUB SWAP1 RETURN JUMPDEST CALLVALUE DUP1 ISZERO PUSH2 0x97 JUMPI PUSH1 0x0 DUP1 REVERT JUMPDEST POP PUSH2 0xA0 PUSH2 0x29C JUMP JUMPDEST PUSH1 0x40 MLOAD PUSH2 0xAD SWAP2 SWAP1 PUSH2 0x37D JUMP JUMPDEST PUSH1 0x40 MLOAD DUP1 SWAP2 SUB SWAP1 RETURN JUMPDEST CALLVALUE DUP1 ISZERO PUSH2 0xC2 JUMPI PUSH1 0x0 DUP1 REVERT JUMPDEST POP PUSH2 0xCB PUSH2 0x2A2 JUMP JUMPDEST PUSH1 0x40 MLOAD PUSH2 0xD8 SWAP2 SWAP1 PUSH2 0x3B9 JUMP JUMPDEST PUSH1 0x40 MLOAD DUP1 SWAP2 SUB SWAP1 RETURN JUMPDEST PUSH1 0x5 SLOAD DUP2 GT PUSH2 0x125 JUMPI PUSH1 0x40 MLOAD PUSH32 0x8C379A000000000000000000000000000000000000000000000000000000000 DUP2 MSTORE PUSH1 0x4 ADD PUSH2 0x11C SWAP1 PUSH2 0x431 JUMP JUMPDEST PUSH1 0x40 MLOAD DUP1 SWAP2 SUB SWAP1 REVERT JUMPDEST CALLER PUSH20 0xFFFFFFFFFFFFFFFFFFFFFFFFFFFFFFFFFFFFFFFF AND PUSH1 0x4 PUSH1 0x0 SWAP1 SLOAD SWAP1 PUSH2 0x100 EXP SWAP1 DIV PUSH20 0xFFFFFFFFFFFFFFFFFFFFFFFFFFFFFFFFFFFFFFFF AND PUSH20 0xFFFFFFFFFFFFFFFFFFFFFFFFFFFFFFFFFFFFFFFF AND SUB PUSH2 0x1B5 JUMPI PUSH1 0x40 MLOAD PUSH32 0x8C379A000000000000000000000000000000000000000000000000000000000 DUP2 MSTORE PUSH1 0x4 ADD PUSH2 0x1AC SWAP1 PUSH2 0x4C3 JUMP JUMPDEST PUSH1 0x40 MLOAD DUP1 SWAP2 SUB SWAP1 REVERT JUMPDEST PUSH1 0x0 PUSH1 0x5 SLOAD EQ PUSH2 0x22B JUMPI PUSH1 0x4 PUSH1 0x0 SWAP1 SLOAD SWAP1 PUSH2 0x100 EXP SWAP1 DIV PUSH20 0xFFFFFFFFFFFFFFFFFFFFFFFFFFFFFFFFFFFFFFFF AND PUSH20 0xFFFFFFFFFFFFFFFFFFFFFFFFFFFFFFFFFFFFFFFF AND PUSH2 0x8FC PUSH1 0x5 SLOAD SWAP1 DUP2 ISZERO MUL SWAP1 PUSH1 0x40 MLOAD PUSH1 0x0 PUSH1 0x40 MLOAD DUP1 DUP4 SUB DUP2 DUP6 DUP9 DUP9 CALL SWAP4 POP POP POP POP ISZERO DUP1 ISZERO PUSH2 0x229 JUMPI RETURNDATASIZE PUSH1 0x0 DUP1 RETURNDATACOPY RETURNDATASIZE PUSH1 0x0 REVERT JUMPDEST POP JUMPDEST CALLER PUSH1 0x4 PUSH1 0x0 PUSH2 0x100 EXP DUP2 SLOAD DUP2 PUSH20 0xFFFFFFFFFFFFFFFFFFFFFFFFFFFFFFFFFFFFFFFF MUL NOT AND SWAP1 DUP4 PUSH20 0xFFFFFFFFFFFFFFFFFFFFFFFFFFFFFFFFFFFFFFFF AND MUL OR SWAP1 SSTORE POP DUP1 PUSH1 0x5 DUP2 SWAP1 SSTORE POP POP JUMP JUMPDEST PUSH1 0x4 PUSH1 0x0 SWAP1 SLOAD SWAP1 PUSH2 0x100 EXP SWAP1 DIV PUSH20 0xFFFFFFFFFFFFFFFFFFFFFFFFFFFFFFFFFFFFFFFF AND DUP2 JUMP JUMPDEST PUSH1 0x5 SLOAD DUP2 JUMP JUMPDEST PUSH1 0x0 ADDRESS SWAP1 POP SWAP1 JUMP JUMPDEST PUSH1 0x0 DUP1 REVERT JUMPDEST PUSH1 0x0 DUP2 SWAP1 POP SWAP2 SWAP1 POP JUMP JUMPDEST PUSH2 0x2C2 DUP2 PUSH2 0x2AF JUMP JUMPDEST DUP2 EQ PUSH2 0x2CD JUMPI PUSH1 0x0 DUP1 REVERT JUMPDEST POP JUMP JUMPDEST PUSH1 0x0 DUP2 CALLDATALOAD SWAP1 POP PUSH2 0x2DF DUP2 PUSH2 0x2B9 JUMP JUMPDEST SWAP3 SWAP2 POP POP JUMP JUMPDEST PUSH1 0x0 PUSH1 0x20 DUP3 DUP5 SUB SLT ISZERO PUSH2 0x2FB JUMPI PUSH2 0x2FA PUSH2 0x2AA JUMP JUMPDEST JUMPDEST PUSH1 0x0 PUSH2 0x309 DUP5 DUP3 DUP6 ADD PUSH2 0x2D0 JUMP JUMPDEST SWAP2 POP POP SWAP3 SWAP2 POP POP JUMP JUMPDEST PUSH1 0x0 PUSH20 0xFFFFFFFFFFFFFFFFFFFFFFFFFFFFFFFFFFFFFFFF DUP3 AND SWAP1 POP SWAP2 SWAP1 POP JUMP JUMPDEST PUSH1 0x0 PUSH2 0x33D DUP3 PUSH2 0x312 JUMP JUMPDEST SWAP1 POP SWAP2 SWAP1 POP JUMP JUMPDEST PUSH2 0x34D DUP2 PUSH2 0x332 JUMP JUMPDEST DUP3 MSTORE POP POP JUMP JUMPDEST PUSH1 0x0 PUSH1 0x20 DUP3 ADD SWAP1 POP PUSH2 0x368 PUSH1 0x0 DUP4 ADD DUP5 PUSH2 0x344 JUMP JUMPDEST SWAP3 SWAP2 POP POP JUMP JUMPDEST PUSH2 0x377 DUP2 PUSH2 0x2AF JUMP JUMPDEST DUP3 MSTORE POP POP JUMP JUMPDEST PUSH1 0x0 PUSH1 0x20 DUP3 ADD SWAP1 POP PUSH2 0x392 PUSH1 0x0 DUP4 ADD DUP5 PUSH2 0x36E JUMP JUMPDEST SWAP3 SWAP2 POP POP JUMP JUMPDEST PUSH1 0x0 PUSH2 0x3A3 DUP3 PUSH2 0x312 JUMP JUMPDEST SWAP1 POP SWAP2 SWAP1 POP JUMP JUMPDEST PUSH2 0x3B3 DUP2 PUSH2 0x398 JUMP JUMPDEST DUP3 MSTORE POP POP JUMP JUMPDEST PUSH1 0x0 PUSH1 0x20 DUP3 ADD SWAP1 POP PUSH2 0x3CE PUSH1 0x0 DUP4 ADD DUP5 PUSH2 0x3AA JUMP JUMPDEST SWAP3 SWAP2 POP POP JUMP JUMPDEST PUSH1 0x0 DUP3 DUP3 MSTORE PUSH1 0x20 DUP3 ADD SWAP1 POP SWAP3 SWAP2 POP POP JUMP JUMPDEST PUSH32 0x546865726520616C7265616479206973206120686967686572206269642E0000 PUSH1 0x0 DUP3 ADD MSTORE POP JUMP JUMPDEST PUSH1 0x0 PUSH2 0x41B PUSH1 0x1E DUP4 PUSH2 0x3D4 JUMP JUMPDEST SWAP2 POP PUSH2 0x426 DUP3 PUSH2 0x3E5 JUMP JUMPDEST PUSH1 0x20 DUP3 ADD SWAP1 POP SWAP2 SWAP1 POP JUMP JUMPDEST PUSH1 0x0 PUSH1 0x20 DUP3 ADD SWAP1 POP DUP2 DUP2 SUB PUSH1 0x0 DUP4 ADD MSTORE PUSH2 0x44A DUP2 PUSH2 0x40E JUMP JUMPDEST SWAP1 POP SWAP2 SWAP1 POP JUMP JUMPDEST PUSH32 0x596F7520616C7265616479206172652074686520686967686573742062696464 PUSH1 0x0 DUP3 ADD MSTORE PUSH32 0x65722E0000000000000000000000000000000000000000000000000000000000 PUSH1 0x20 DUP3 ADD MSTORE POP JUMP JUMPDEST PUSH1 0x0 PUSH2 0x4AD PUSH1 0x23 DUP4 PUSH2 0x3D4 JUMP JUMPDEST SWAP2 POP PUSH2 0x4B8 DUP3 PUSH2 0x451 JUMP JUMPDEST PUSH1 0x40 DUP3 ADD SWAP1 POP SWAP2 SWAP1 POP JUMP JUMPDEST PUSH1 0x0 PUSH1 0x20 DUP3 ADD SWAP1 POP DUP2 DUP2 SUB PUSH1 0x0 DUP4 ADD MSTORE PUSH2 0x4DC DUP2 PUSH2 0x4A0 JUMP JUMPDEST SWAP1 POP SWAP2 SWAP1 POP JUMP INVALID LOG2 PUSH5 0x6970667358 0x22 SLT KECCAK256 0xD8 DUP12 0xB3 PUSH5 0x40C64CD42B 0xCB SWAP9 SWAP10 0xCC EQ 0xE2 GASPRICE 0xF9 0xD9 CODECOPY 0xC5 0xB8 0xD5 0xD1 0xBD CALLVALUE 0xBE SLT 0xF7 SLOAD DUP15 0xEF CALLDATACOPY PUSH5 0x736F6C6343 STOP ADDMOD SLT STOP CALLER "
				},
				"gasEstimates": {
					"creation": {
						"codeDepositCost": "261000",
						"executionCost": "infinite",
						"totalCost": "infinite"
					},
					"external": {
						"bid(uint256)": "infinite",
						"contractAddress()": "429",
						"highestBid()": "2451",
						"highestBidder()": "2514"
					}
				},
				"methodIdentifiers": {
					"bid(uint256)": "454a2ab3",
					"contractAddress()": "f6b4dfb4",
					"highestBid()": "d57bde79",
					"highestBidder()": "91f90157"
				}
			},
			"storageLayout": {
				"storage": [
					{
						"astId": 47,
						"contract": "contracts/Auction.sol:Auction",
						"label": "auctionOwner",
						"offset": 0,
						"slot": "0",
						"type": "t_address_payable"
					},
					{
						"astId": 49,
						"contract": "contracts/Auction.sol:Auction",
						"label": "auctionTitle",
						"offset": 0,
						"slot": "1",
						"type": "t_string_storage"
					},
					{
						"astId": 51,
						"contract": "contracts/Auction.sol:Auction",
						"label": "startPrice",
						"offset": 0,
						"slot": "2",
						"type": "t_uint256"
					},
					{
						"astId": 53,
						"contract": "contracts/Auction.sol:Auction",
						"label": "auctionDescription",
						"offset": 0,
						"slot": "3",
						"type": "t_string_storage"
					},
					{
						"astId": 83,
						"contract": "contracts/Auction.sol:Auction",
						"label": "highestBidder",
						"offset": 0,
						"slot": "4",
						"type": "t_address_payable"
					},
					{
						"astId": 86,
						"contract": "contracts/Auction.sol:Auction",
						"label": "highestBid",
						"offset": 0,
						"slot": "5",
						"type": "t_uint256"
					}
				],
				"types": {
					"t_address_payable": {
						"encoding": "inplace",
						"label": "address payable",
						"numberOfBytes": "20"
					},
					"t_string_storage": {
						"encoding": "bytes",
						"label": "string",
						"numberOfBytes": "32"
					},
					"t_uint256": {
						"encoding": "inplace",
						"label": "uint256",
						"numberOfBytes": "32"
					}
				}
			},
			"userdoc": {
				"kind": "user",
				"methods": {},
				"version": 1
			}
		}
	}
}